:102AD3003C5053325F52454430313A233030355005
:102AE300303630305432303030215E233030355080
:102AF300445354213E003C5053325F5245443032DC
:102B03003A23303035503234303054323030302183
:102B13005E2330303550445354213E003C505332F1
:102B23005F52454430333A233030345030363030FE
:102B33005432303030215E233030345044535421EA
:102B43003E003C5053325F52454430343A233030D8
:102B53003450323430305432303030215E23303010
:102B63003450445354213E003C5053325F52454449
:102B730030353A2330303250323430305432303002
:102B830030215E2330303250445354213E003C50B8
:102B930053325F52454430363A2330303350323467
:102BA30030305432303030215E2330303350445390
:102BB30054213E003C5053325F52454430373A2350
:102BC30030303250303630305432303030215E23A2
:102BD30030303250445354213E003C5053325F5204
:102BE300454430383A233030335030363030543265
:102BF300303030215E2330303350445354213E0073
:102C03003C5053325F52454430393A24444A5221AE
:102C13003E003C5053325F52454431303A3E003C13
:102C23005053325F52454431313A3E003C505332A7
:102C33005F52454431323A24444A52213E003C50CB
:102C430053325F52454431333A23303031503036BA
:102C530030305432303030215E23303031504453E1
:102C630054213E003C5053325F52454431343A23A1
:102C730030303050303630305432303030215E23F3
:102C830030303050445354213E003C5053325F5255
:102C9300454431353A2330303150323430305432B8
:102CA300303030215E2330303150445354213E00C4
:102CB3003C5053325F52454431363A233030305022
:102CC300323430305432303030215E2330303050A3
:102CD300445354213E003C5053325F47524E3031EF
:102CE3003A233030355030363030543230303021A2
:102CF3005E2330303550445354213E003C50533210
:102D03005F47524E30323A23303035503234303010
:102D13005432303030215E23303035504453542107
:102D23003E003C5053325F47524E30333A233030EB
:102D33003450303630305432303030215E2330302E
:102D43003450445354213E003C5053325F47524E5B
:102D530030343A233030345032343030543230301F
:102D630030215E2330303450445354213E003C50D4
:102D730053325F47524E30353A233030325032347B
:102D830030305432303030215E23303032504453AF
:102D930054213E003C5053325F47524E30363A2363
:102DA30030303350323430305432303030215E23BF
:102DB30030303350445354213E003C5053325F472C
:102DC300524E30373A23303032503036303054326E
:102DD300303030215E2330303250445354213E0092
:102DE3003C5053325F47524E30383A2330303350E1
:102DF300303630305432303030215E23303033506F
:102E0300445354213E003C5053325F47524E3039B5
:102E13003A24444A52213E003C5053325F47524EBB
:102E230031303A3E003C5053325F47524E31313AD3
:102E33003E003C5053325F47524E31323A24444AAB
:102E430052213E003C5053325F47524E31333A23B6
:102E530030303150303630305432303030215E2310
:102E630030303150445354213E003C5053325F477D
:102E7300524E31343A2330303050303630305432C1
:102E8300303030215E2330303050445354213E00E3
:102E93003C5053325F47524E31353A233030315034
:102EA300323430305432303030215E2330303150C0
:102EB300445354213E003C5053325F47524E313607
:102EC3003A233030305032343030543230303021C5
:102ED3005E2330303050445354213E003230323080
:102EE3003036323800756172743120636865636B04
:102EF300206F6B2100756172743220636865636BA8
:102F0300206F6B2100756172743420636865636B95
:102F1300206F6B210023303030502530346454311E
:102F23003030302123303031502530346454313047
:102F33003030212330303250253034645431303036
:102F43003021233030335025303464543130303025
:102F53002123303034502530346454313030302123
:102F63002330303550253034645431303030210033
:102F73005E002400230024445354210023323535BA
:102F8300504453542100244453543A00244453548A
:102F93003A256421002325303364504453542100DF
:102FA300245253542100245054473A002450544788
:102FB3003A25642D25642100244445473A002444DE
:102FC30045473A25642D25642100244447533A009C
:102FD300244447533A25642100244447543A0024A7
:102FE3004447543A25642D25642C25642100244448
:102FF30043523A00244443523A25642C2564210069
:1030030024444A522100233235355031353030546F
:10301300323030302100244A58425F5357495443D9
:1030230048210024474554412100414141002447A0
:10303300455453210067726F75705F646F5F6F6BE8
:103043003D300067726F75705F646F5F6F6B3D310A
:103053000024474554494E432100696E632564208B
:103063003D202566200D0A002444525321000D0AF9
:1030730035314D43552D494150313557344B363158
:103083005334205665723A0024534D4F444500246F
:10309300534D4F44452564210024534D4152545F01
:1030A30053544F502100404F4B2100244B4D533A72
:1030B30000244B4D533A25642C25642C25642C2580
:1030C30064210054727920746F2066696E642062F3
:1030D30065737420706F733A0D0A0043616E277431
:1030E3002066696E64206265737420706F7321219A
:1030F300210040434C454152205052455F434D44CB
:10310300204F4B21003C244447543A25642D256429
:103113002C2564213E0040534554205052455F43C3
:103123004D44204F4B2100450041000D0A0040450E
:1031330072617365202564204F4B210040446F4723
:10314300726F7570202564204F4B210D0A00404794
:10315300726F7570446F6E65210041542B42415567
:1031630044380D0A0041542B5350504E414D455A9B
:103173004C2D35312D4254322E300D0A0041542B43
:103183004C454E414D455A4C2D35312D4254342E2C
:10319300300D0A0041542B4E414D455A4C2D3531CB
:1031A3002D4254322E300D0A007B23303036502509
:1031B30030346454303030302123303037502530B0
:1031C30034645430303030217D0023253033645053
:1031D3002530346454253034642128252E31662962
:1031E3000D0A00FF2AD3FF2AF9FF2B1FFF2B45FFF0
:1031F3002B6BFF2B91FF2BB7FF2BDDFF2C03FF2C3A
:1032030015FF2C22FF2C2FFF2C41FF2C67FF2C8D49
:10321300FF2CB3FF2CD9FF2CFFFF2D25FF2D4BFFD8
:103223002D71FF2D97FF2DBDFF2DE3FF2E09FF2EDF
:103233001BFF2E28FF2E35FF2E47FF2E6DFF2E93EB
:03324300FF2EB9A2
:1058ED004403E0000000004103E4004403E5000030
:1058FD0000004403E9000000004903ED0000000032
:10590D0000000000004403F6000000004403FA000C
:10591D000000004403A2000000004403A600000B99
:10592D00B84403AA000000004203AE00004203B0D9
:10593D0000004203BA00004203C4FFFF4103CA0046
:10594D004403CB000000004103CF014103D00044CC
:06595D0003D10000000070
:105DAF00126C57126C5A126C63126C5D126C60128B
:105DBF005A5A126C66126A73126A8A126C6C125FEC
:105DCF006D126C69126C4112009A12582990045787
:105DDF00120AFC42D2000090045B120AFC42C4007B
:105DEF000090045F120AFC431600009004637401D4
:105DFF00F0A37403F0A374FEF07F007E007DB47CEB
:105E0F0042125D081267661263B4126BBE9003F6FE
:105E1F00E0F8A3E0F9A3E0FAA3E0FBC3EF9BFFEEEA
:105E2F009AFEED99FDEC98FCE47BE87A03F9F8C350
:105E3F001209F350CF125487124324126679126756
:065E4F009D12651480BEE7
:036C57000264666E
:036C5A00026A27A4
:036C5D00D2CB2275
:036C6000C2A622A7
:036C630002000E1E
:105A5A00126A0B1268A2EF64167003EE64EF600418
:105A6A00D2A680EF7B017A007970900472E4F0A3E9
:105A7A0074C1F07F007EF07DFF7CFF125FF890001A
:105A8A0070A3A3E0FEA3E064DF7003742E6E601EB1
:105A9A007BFF7A2E79DFAF01AE027DFF7C0090009A
:105AAA0070120AF0900074120AFC000000009001C3
:105ABA0027E07004A3E064386034E49003D5F090E2
:105ACA0003D5E0FFC39408748094805018EF25E052
:105ADA002417F582E43401F583E4F0A3F09003D5AA
:105AEA00E004F080DA900127E4F0A37438F0900122
:0E5AFA0030E0D39401748094804002E4F022E6
:036C6600026C338A
:036C6900026A5B61
:106A73007F007EC27D017C00126239126C6F7BFF46
:076A83007A2E79E80266F3A8
:106A8A007F007EC27D017C001262F91200967BFFB4
:076A9A007A2E79F802696809
:106AA1007F007EC27D017C001261D8126C4B7BFF9E
:076AB1007A2F79080268400A
:036C6C00026B595F
:10582900D2A6C2CB7FC87E001269ADC2A6D2CB7FF9
:10583900C87E001269ADD2A6C2CB7FC87E001269AC
:10584900ADC2A6D2CB7FC87E001269ADD2A6C2CBAB
:105859007FC87E001269ADC2A6D2CB7FC87E001276
:1058690069AD900116E06438707978317C017D0169
:105879007B017A007978120C6B900078E0B42409E6
:105889007B017A0079780217B79003D57410F07B01
:10589900017A017931126ACD9003D5E0C39FE49E64
:1058A900503EE0FF2431F582E43401F5837430F091
:1058B90074322FF582E43401F5837430F074332F98
:1058C900F582E43401F5837430F074342FF582E401
:1058D9003401F5837430F09003D5E0240FF080AFE4
:0458E900120D482232
:105F6D00E49003D5F09003D5E0FFC39408748094BA
:105F7D00805077EF25E02417F582E43401F583E0B6
:105F8D00FEA3E024DCFDEE3405FC1203CB9003D51B
:105F9D00E0FB75F00EA42400F582E43400F58312C5
:105FAD000AF0EB75F00EA42400F582E43400F583BD
:105FBD00E0FCA3E0FDA3E0FEA3E0FFEB75F00EA473
:105FCD002404F582E43400F583120AF0EB75F00E2B
:105FDD00A42408F582E43400F583120AFC000000C5
:0B5FED00009003D5E004F0025F722278
:066C410075B810D2AF226D
:10676600126BBE9003A2E0F8A3E0F9A3E0FAA3E05F
:10677600FBC3EF9BFFEE9AFEED99FDEC98FCE47BE4
:10678600F47A01F9F8D31209F3500B126BBE900399
:06679600A2120AF0B2CBD2
:01679C0022DA
:1063B400900335E06052900336E0640170051217D3
:1063C400B1802D900336E0FF64026005EF64037032
:1063D40005120D48801A900336E0640470127B01A4
:1063E4007A017931123FB6126BBE9003F6120AF0AD
:1063F4007E027F047D007B017A017931120C88E4EE
:09640400900336F0900335F022FC
:106514009003E4E064016032126BBE9003E0E0F8A3
:10652400A3E0F9A3E0FAA3E0FBC3EF9BFFEE9AFE1E
:10653400ED99FDEC98FC9003A6E0F8A3E0F9A3E044
:10654400FAA3E0FBC31209F35011E49003E4F01240
:0B6554006BBE9003E0120AF0126943D6
:01655F002219
:10667900126BBE9003AAE0F8A3E0F9A3E0FAA3E045
:10668900FBC3EF9BFFEE9AFEED99FDEC98FCE47BD2
:1066990032FAF9F8D31209F35012126BBE9003AA19
:0C66A900120AF07B017A0379ED1259AA65
:0166B50022C2
:106AE200D3EF9400EE64809480400122C3E49FFFC0
:046AF200E49EFE22FE
:103D59009003EEE064736003023FB59003F5E0243D
:103D690081FFE434FFFEEF7803C333CE33CED8F9B5
:103D7900FF9003B8EEF0A3EFF09003F4E02481FF85
:103D8900E434FFFEEF7803C333CE33CED8F9FF9086
:103D990003B4EEF0FCA3EFF0FD9003F3E02481FF00
:103DA900E434FFFEEF7803C333CE33CED8F9FF9066
:103DB90003B6EEF0A3EFF09003AEE0FEA3E0FFC37D
:103DC900ED9FFFEC9EFE126AE2D3EF9410EE648041
:103DD900948050269003B2E0FEA3E0FFC39003B99C
:103DE900E09FFF9003B8E09EFE126AE2D3EF9410C1
:103DF900EE648094805003023F309003B4E0FEA348
:103E0900E0FF126AE2C3EF941EEE648094805007CB
:103E1900E49003B4F0A3F090048674FFF0A3742F28
:103E2900F0A37418F09003B4E0FCA3E0FDEC1203D6
:103E3900CB7B9A7A997919783F120196A804A9053A
:103E4900AA06AB077F007E807DBB7C441200A112CD
:103E59000404900489EEF0A3EFF09003B8E0FCA30A
:103E6900E0FDEC1203CB7B9A7A997919783F12011C
:103E790096A804A905AA06AB077F007E807DBB7CB6
:103E8900441200A112040490048BEEF0A3EFF09009
:103E990003B8E0FCA3E0FDEC1203CB7B9A7A997995
:103EA90019783F1201967B007A8079BB7844120019
:103EB900A512040490048DEEF0A3EFF0A3EEF0A395
:103EC900EFF09003B8E0FCA3E0FDEC1203CB7B9A82
:103ED9007A997919783F120196A804A905AA06AB1F
:103EE900077F007E807DBB7C441200A112040490F0
:103EF9000491EEF0A3EFF0A3EEF0A3EFF07B017ACB
:103F09000179311232AB120D489003B4E0FFA3E0FE
:103F19009003AECFF0A3EFF09003B8E0FFA3E090D9
:103F290003B2CFF0A3EFF09003B0E0FEA3E0FFC32C
:103F39009003B7E09FFF9003B6E09EFE126AE2D3BA
:103F4900EF9410EE6480948040629003F2E0248143
:103F5900FFE434FFFEEF7802C333CE33CED8F9FD48
:103F6900AC069003F3E02481FFE434FFFEEF78020E
:103F7900C333CE33CED8F9FBAA06C39DFEEA9C9083
:103F890003B4F0A3CEF0EB2DFFEA3CA3F0FCA3EFC2
:103F9900F0FD9003B4E0FEA3E0FF1266B69003B60D
:0C3FA900E0FFA3E09003B0CFF0A3EFF026
:013FB50022E9
:10679D009003F0E0FF9003BAE0B5070C9003F1E031
:1067AD00FF9003BBE06F601E7B017A0379F09003CD
:1067BD00EEE0FD123A239003F0E09003BAF090035F
:0667CD00F1E09003BBF0B7
:0167D30022A3
:104A4E009003EEE064736003024B8B9003F5E0FF7E
:104A5E00C3747F9FFFE49400FE126AF6C3EF9405C1
:104A6E00EE6480948050069003F5747FF09003F30B
:104A7E00E0FFC3747F9FFFE49400FE126AF6C3EF5B
:104A8E009405EE6480948050069003F3747FF0904A
:104A9E0003F5E0FFC3747F9FFFE49400FEEF7803FD
:104AAE00C333CE33CED8F9FF9003BCEEF0FCA3EFA8
:104ABE00F0FD9003F3E0FFC3747F9FFFE49400FECC
:104ACE00EF7803C333CE33CED8F9FF9003BEEEF0AA
:104ADE00A3EFF0D3ED94E8EC64809483400590034B
:104AEE00BC8028C39003BDE094189003BCE06480A2
:104AFE00947C5002802C9003BEE0FEA3E0FFD39482
:104B0E00E8EE64809483400C9003BE7403F0A374AB
:104B1E00E8F08015C3EF9418EE6480947C500A90F0
:104B2E0003BE74FCF0A37418F09003C0E0FCA3E085
:104B3E00FD9003BCE0FEA3E0FFB50518EEB504142E
:104B4E009003C2E0FCA3E0FD9003BEE06C7003A3F3
:104B5E00E06D60299003BEE0FCA3E0FD1266B69006
:104B6E0003BCE0FFA3E09003C0CFF0A3EFF09003EF
:0D4B7E00BEE0FFA3E09003C2CFF0A3EFF074
:014B8B002207
:053A2300900453EDF0DA
:103A2800E4900455F0900001120793FD7C00120702
:103A38007AFEE42DFFEC3EFE9003C6F0A3EFF09073
:103A480003C4E0FCA3E0FD6F7002EC6E7003023D5E
:103A580058A3E0FEA3E0FFA3EEF0A3EFF0EE5CFEB8
:103A6800EF5DFF9003C6EEF0A3EFF0E4900454F08E
:103A7800900454E0FFC39410748094804003023D86
:103A88003E7E007401A807088005C333CE33CED824
:103A9800F9FF9003C6E05EFCA3E05F4C6003023DC3
:103AA800359003C4E05EFEA3E05F4E7003023BDB8B
:103AB8007E027F047D007B017A017931120C8890A7
:103AC8000453E06473702EA3E075F003A424E6F5B4
:103AD80082E43431F583E493FB740193FA7402931E
:103AE800F9126ACD900454E075F003A424E6F58237
:103AF800E434318037900453E064416003023D357B
:103B0800A3E075F003A42416F582E43432F583E4C7
:103B180093FB740193FA740293F9126ACD900454DA
:103B2800E075F003A42416F582E43432F583E493B7
:103B3800FB740193FA740293F978317C017D0112C8
:103B4800075490046A74FFF0A3742FF0A37473F001
:103B58007B017A01793112513C900455EFF0600CE9
:103B6800E02430F582E43401F583E4F090046A74CB
:103B7800FFF0A3742FF0A37475F07B017A017931FB
:103B880012513CEF4E601478387C037D017B017A3A
:103B980001793C120C6B1217A2802D90046A74FFF5
:103BA800F0A3742FF0A37477F07B017A01793112B6
:103BB800513CEF4E601278387C037D017B017A011D
:103BC800793C120C6B120D3974FF9003C4F0A3F00A
:103BD800023D357E027F047D007B017A0179311236
:103BE8000C88900453E06473702EA3E075F003A46E
:103BF80024E6F582E43431F583E493FB740193FA07
:103C0800740293F9126ACD900454E075F003A42469
:103C1800E6F582E434318037900453E06441600370
:103C2800023D35A3E075F003A42416F582E434328E
:103C3800F583E493FB740193FA740293F9126ACD45
:103C4800900454E075F003A42416F582E43432F5A8
:103C580083E493FB740193FA740293F978317C013D
:103C68007D0112075490046A74FFF0A3742FF0A327
:103C78007473F07B017A01793112513C900455EF4D
:103C8800F07003023D35E07E002431F9EE3401FA8C
:103C98007B0190046A74FFF0A3742FF0A37475F08D
:103CA80012513CEF4E6032900455E07E002431F909
:103CB800EE3401FA7B0178387C037D01120C6B7BB2
:103CC800017A037938126ACD74372FF58274033E6E
:103CD800F583E4F01217A28054900455E07E002486
:103CE80031F9EE3401FA7B0190046A74FFF0A37491
:103CF8002FF0A37477F012513CEF4E6030900455CA
:103D0800E07E002431F9EE3401FA7B0178387C0337
:103D18007D01120C6B7B017A037938126ACD7437F6
:103D28002FF58274033EF583E4F0120D39900454A4
:103D3800E004F0023A789003C8E0FFA3E09003C4DF
:103D4800CFF0A3EFF0D2A67F327E001269ADC2A6F3
:013D58002248
:0100220022BB
:1017A20078317C017D017B017A037938120C6B7BE5
:0517B200017A0179310C
:0B17B700900456EBF0A3EAF0A3E9F069
:1017C2001266F390046A74FFF0A3742FF0A3747985
:1017D200F0900456E0FBA3E0FAA3E0F912513C902A
:1017E2000459EEF0A3EFF04E700302188890039FA5
:1017F2007401F0E490045BF0A3F090045BE0FAA3C0
:10180200E0FBC39408EA9400506490000875F00E5F
:10181200EB120B2DEA75F00EA42583F583120AFC58
:101822000000000090000475F00EEB120B2DEA751B
:10183200F00EA42583F583E0FCA3E0FDA3E0FEA364
:10184200E0FF90045BE0FAA3E090000075F00E1256
:101852000B2DEA75F00EA42583F583120AF090048D
:101862005CE004F0709490045BE004F0808C7BFFF9
:101872007A2F797F1267D4E4FDFCFFFE1266B690E0
:10188200039E74FFF02290046A74FFF0A3742FF099
:10189200A37489F0900456E0FBA3E0FAA3E0F912E6
:1018A200513C900459EEF0A3EFF04E700302196B15
:1018B20090046A74FFF0A3742FF0A3748FF0A374E2
:1018C20001F0A37404F0A3745DF0900456E0FBA34E
:1018D200E0FAA3E0F9123752EF4E70030221AC9006
:1018E200045DE0FAA3E0FB90000875F00E120B2DE8
:1018F200EA75F00EA42583F583120AFC00000000AD
:1019020090000475F00EEB120B2DEA75F00EA42573
:1019120083F583E0FCA3E0FDA3E0FEA3E0FF9004D7
:101922005DE0FAA3E090000075F00E120B2DEA754F
:10193200F00EA42583F583120AF090048674FFF05A
:10194200A3742FF0A37498F090045DE0FFA3E090DD
:101952000489CFF0A3EFF07B017A0379381232AB1E
:101962007B017A0379380267D490046A74FFF0A38A
:10197200742FF0A374A3F0900456E0FBA3E0FAA343
:10198200E0F912513C900459EEF0A3EFF04E6003DF
:1019920002001E90046A74FFF0A3742FF0A374A9CE
:1019A200F0900456E0FBA3E0FAA3E0F912513C9058
:1019B2000459EEF0A3EFF04E604C90046A74FFF00D
:1019C200A3742FF0A374AFF0A37401F0A37404F016
:1019D200A3745FF0A37401F0A37404F0A37461F024
:1019E200900456E0FBA3E0FAA3E0F9123752EF4E5F
:1019F20070030221AC90045FE0FEA3E0FFA3E0FCD1
:101A0200A3E0FD025BB490046A74FFF0A3742FF0AC
:101A1200A374BBF0900456E0FBA3E0FAA3E0F91232
:101A2200513C900459EEF0A3EFF04E604C90046AE2
:101A320074FFF0A3742FF0A374C1F0A37401F0A398
:101A42007404F0A3745FF0A37401F0A37404F0A310
:101A52007461F0900456E0FBA3E0FAA3E0F91237B8
:101A620052EF4E70030221AC90045FE0FEA3E0FF50
:101A7200A3E0FCA3E0FD02576390046A74FFF0A3A5
:101A8200742FF0A374CDF0900456E0FBA3E0FAA308
:101A9200E0F912513C900459EEF0A3EFF04E604190
:101AA20090046A74FFF0A3742FF0A374D3F0A374AC
:101AB20001F0A37404F0A3745FF0900456E0FBA35A
:101AC200E0FAA3E0F9123752EF4E70030221AC9014
:101AD200045FE0FEA3E0FF1260FD90039F7401F03B
:101AE2002290046A74FFF0A3742FF0A374DCF090C8
:101AF2000456E0FBA3E0FAA3E0F912513C9004592A
:101B0200EEF0A3EFF04E7003021B9190046A74FF93
:101B1200F0A3742FF0A374E2F0A37401F0A3740392
:101B2200F0A374DAF0A37401F0A37403F0A374DCDD
:101B3200F0A37401F0A37403F0A374DEF0900456D2
:101B4200E0FBA3E0FAA3E0F9123752EF4E70030272
:101B520021AC9003DCE0FCA3E0FD9003DAE0FEA3FD
:101B6200E0FF6D7002EE6C601D9003D6EEF0A3EF05
:101B7200F09003DEE0FDA3E09003D8CDF0A3EDF0FA
:101B8200E490039FF02290039F7401F00260FD90A5
:101B9200046A74FFF0A3742FF0A374F1F09004565A
:101BA200E0FBA3E0FAA3E0F912513C900459EEF0F5
:101BB200A3EFF04E604C90046A74FFF0A3742FF010
:101BC200A374F7F0A37401F0A37404F0A3745FF09C
:101BD200A37401F0A37404F0A37461F0900456E0BE
:101BE200FBA3E0FAA3E0F9123752EF4E7003022191
:101BF200AC90045FE0FEA3E0FFA3E0FCA3E0FD02E3
:101C0200205890046A74FFF0A37430F0A37403F0B8
:101C1200900456E0FBA3E0FAA3E0F912513C9004D1
:101C220059EEF0A3EFF04E7003021D397BFF7A30BC
:101C320079091267D4E490045BF0A3F090045CE0AD
:101C420025E0FF90045BE033FE74172FF5827401E8
:101C52003EF583E0FEA3E024DCFDEE3405FC120336
:101C6200CB90045BE0FAA3E0FB90000075F00E124B
:101C72000B2DEA75F00EA42583F583120AF090006D
:101C82000C75F00EEB120B2DEA75F00EA42583F500
:101C920083E0FCA3E0FDEC1203CBE4FBFA79A0782D
:101CA2004112029FC004C005C006C00790045BE059
:101CB200FEA3E0FF90000475F00E120B2DEE75F0FE
:101CC2000EA42583F583E0F8A3E0F9A3E0FAA3E0EC
:101CD200FB90000075F00EEF120B2DEE75F00EA4C6
:101CE2002583F583E0FCA3E0FDA3E0FEA3E0FF1261
:101CF20000A1D003D002D001D00012029F90045B59
:101D0200E0FAA3E090000875F00E120B2DEA75F0D0
:101D12000EA42583F583120AF090045CE004F070AF
:101D22000690045BE004F090045BE07004A3E064BE
:101D3200086003021C3E2290046A74FFF0A3743010
:101D4200F0A37419F0900456E0FBA3E0FAA3E0F9C3
:101D520012513C900459EEF0A3EFF04E7003021EB4
:101D62009590039F7401F07BFF7A3079091267D452
:101D7200E490045BF0A3F090045BE0FAA3E0FBC301
:101D82009408EA94004003021E7290000075F00E5F
:101D9200EB120B2DEA75F00EA42583F583120AFCD3
:101DA20044BB800090000C75F00EEB120B2DEA750F
:101DB200F00EA42583F5837407F0A374D0F0900489
:101DC2005BE0FEA3E090000C75F00E120B2DEE7599
:101DD200F00EA42583F583E0FCA3E0FDEC1203CB17
:101DE200E4FBFA79A0784112029FC004C005C00644
:101DF200C00790045BE0FEA3E0FF90000475F00EC4
:101E0200120B2DEE75F00EA42583F583E0F8A3E006
:101E1200F9A3E0FAA3E0FB90000075F00EEF120BBD
:101E22002DEE75F00EA42583F583E0FCA3E0FDA35F
:101E3200E0FEA3E0FF1200A1D003D002D001D00047
:101E420012029F90045BE0FAA3E090000875F00E86
:101E5200120B2DEA75F00EA42583F583120AF09079
:101E6200045CE004F0700690045BE004F0021D796B
:101E72009003CAE060047F0180027F027E0012604C
:101E8200FD9003CAE070047F0180027F009003CAC4
:101E9200EFF02290046A74FFF0A37430F0A374266A
:101EA200F0900456E0FBA3E0FAA3E0F912513C9053
:101EB2000459EEF0A3EFF04E60097BFF7A30792DE2
:101EC2000221A990046A74FFF0A37430F0A3743164
:101ED200F0900456E0FBA3E0FAA3E0F912513C9023
:101EE2000459EEF0A3EFF04E601690039FE07BFFE3
:101EF20070077A3079380221A97A3079460221A90D
:101F020090046A74FFF0A37430F0A37454F0900448
:101F120056E0FBA3E0FAA3E0F912513C900459EE1B
:101F2200F0A3EFF04E6076E4A3F0A3F09004867481
:101F3200FFF0A37430F0A3745DF090045BE0FEA3A5
:101F4200E0FD900489EEF0A3EDF090000875F00E2C
:101F5200120B2DEE75F00EA42583F583E0FCA3E0B1
:101F6200FDA3E0FEA3E0FF90048B120AF07B017A4E
:101F72000379381232AB7B017A0379381266F39017
:101F8200045CE004F0700690045BE004F0C390048B
:101F92005CE0940890045BE0940040902290046A14
:101FA20074FFF0A37430F0A3746BF0900456E0FB5E
:101FB200A3E0FAA3E0F912513C900459EEF0A3EF2A
:101FC200F04E60127BFF7A3079711266F37BFF7AF2
:101FD2002E79DF0221A990046A74FFF0A37430F015
:101FE200A3748BF0900456E0FBA3E0FAA3E0F9128D
:101FF200513C900459EEF0A3EFF04E605C90046AFD
:1020020074FFF0A37430F0A37492F0A37401F0A3F0
:102012007404F0A3745FF0900456E0FBA3E0FAA30B
:10202200E0F9123752EF4E70030221AC90045FE0E8
:10203200FEA3E0FFC3940AEE648094804003022171
:10204200AC90039EEFF07D647C007F017E00126401
:102052000DE4FDFCFFFE0266B690046A74FFF0A375
:102062007430F0A3749CF0900456E0FBA3E0FAA352
:10207200E0F912513C900459EEF0A3EFF04E6023C8
:1020820090039E74FFF07D647C007F017E001264E9
:102092000D7BFF7A2F797F120D4E7BFF7A3079A963
:1020A2000221A990046A74FFF0A37430F0A374AE05
:1020B200F0900456E0FBA3E0FAA3E0F912513C9041
:1020C2000459EEF0A3EFF04E70030221AC90046AC3
:1020D20074FFF0A37430F0A374B4F0A37401F0A3FE
:1020E2007404F0A3745FF0A37401F0A37404F0A36A
:1020F2007461F0A37401F0A37404F0A37463F0A3F9
:102102007401F0A37404F0A37465F0900456E0FB2C
:10211200A3E0FAA3E0F9123752EF4E70030221ACAA
:102122007BFF7A3079C61266F3900461E0FCA3E08B
:10213200FDEC1203CB90046B120AF0900463E0FCF6
:10214200A3E0FDEC1203CB90046F120AF090046539
:10215200E0FFA3E0900473CFF0A3EFF07F007E00D6
:102162007D007C00124196EF4E6012D2A67F327E35
:10217200001269ADC2A67F327E000269ADD2A67F8F
:10218200327E001269ADC2A67F327E001269ADD2E4
:10219200A67F327E001269ADC2A67F327E0012692E
:0A21A200AD7BFF7A3079DE1266F3A0
:0121AC002210
:0B3FB600900453EBF0A3EAF0A3E9F045
:103FC100E4A3F0A3F0900453E0FBA3E0FAA3E0F92B
:103FD100900001120793B4241A900002120793B4BF
:103FE1002111E4900116F01269437BFF7A3079F5D3
:103FF100024192900453E0FBA3E0FAA3E0F99000A0
:1040010001120793642460030240C990046A74FF9B
:10401100F0A37431F0A37408F0A37401F0A3740346
:10402100F0A374DAF0A37401F0A37403F0A374DCB9
:10403100F0A37401F0A37403F0A374DEF0123752FD
:10404100EF4E70030241959003DCE0FEA3E0FF9088
:1040510003DAE0B5061EA3E0B507197B017A007902
:10406100787F00FEE4FCFD90047204F0A3E4F012FA
:104071005FF880427E007F9F7D007B017A00797826
:10408100120C88900453E0FBA3E0FAA3E02401F9A9
:10409100E43AFA78787C007D01120C6B900453E0CD
:1040A100FBA3E0FAA3E0F9126ACD74762FF58274CE
:1040B100003EF583E4F09001167438F01269437BF9
:1040C100FF7A317919024192900453E0FBA3E0FA9F
:1040D100A3E0F9125E55900456EEF0A3EFF0F470F0
:1040E10002EEF46015900453E0FBA3E0FAA3E0F9BB
:1040F100900006120793642360097BFF7A31792AC5
:10410100024192900457E07B00FA7C107D007F0011
:10411100FE120806ED4C70127C10FDFFAE02120873
:1041210006EE3395E0FDFC126170900453E0FBA3B1
:10413100E0FAA3E0F990045C747BF07D3C126A42E2
:10414100900453E0FBA3E0FAA3E0F990045C747DD2
:10415100F07D3E126A42900453E0FBA3E0FAA3E033
:10416100F9126ACDEF2401FFE43E90045FF0A3EF62
:10417100F0900453E0FBA3E0FAA3E0F9900457E0C8
:104181007F00FE3395E0FDFC1255937BFF7A317978
:044191002C1266F393
:014195002207
:0B5E5500900458EBF0A3EAF0A3E9F082
:105E6000E4A3F0A3F0900458E0FBA3E0FAA3E0F968
:105E700012077A6067644770579004598041900414
:105E800058E0FBA3E0FAA3E0F912077AFF6423606D
:105E900036EF64246031EFFB7A0090045BE0FEA3F0
:105EA000E0FF7C007D0A1207F4EF2BFFEA3ECF24CF
:105EB000D0CF34FF90045BF0A3EFF0900459E47569
:105EC000F00112083C80B790045BE0FEA3E0FF22E3
:105ED000900459E475F00112083C80897EFF7FFF31
:015EE000229F
:105BB400900467EEF0A3EFF0A3ECF0A3EDF09004F3
:105BC40069E0FEA3E0FFD3900468E09FEE6480F8F0
:105BD400900467E0648098401790046E7401F0A309
:105BE4007404F0A37469F07B017A0479671265F593
:105BF400900469E0FEA3E0FFD3900468E09FEE64A4
:105C040080F8900467E0648098504F7E027F047DA2
:105C1400007B017A017931120C887B017A01793198
:105C2400900468E07F00FE3395E0FDFC90047274FC
:105C340001F0A3E4F0125FF87B017A017931126676
:105C4400F37BFF7A31792E1266F3900468E004F056
:0B5C5400709E900467E004F080962230
:0B65F50090046BEBF0A3EAF0A3E9F0C8
:10660000120868FFAEF090046EE0FBA3E0FAA3E08E
:10661000F9120868FD90046BE0FBA3E0FAA3E0F92F
:10662000E5F08DF01208CB90046EE0FBA3E0FAA336
:08663000E0F9EE8FF00208CB47
:10576300900467EEF0A3EFF0A3ECF0A3EDF0900448
:1057730069E0FEA3E0FFD3900468E09FEE6480F845
:10578300900467E0648098401790046E7401F0A35E
:105793007404F0A37469F07B017A0479671265F5E8
:1057A300C390046AE0947F900469E064809480402D
:1057B30006E4F0A3747FF0900469E0FCA3E0FD909D
:1057C3000467E0FEA3E0FFD39DEC6480F8EE648001
:1057D300985048EE3395E0FDFC1261709004867496
:1057E300FFF0A37431F0A37431F0900467E0FFA3DA
:1057F300E0900489CFF0A3EFF07B017A03793812AC
:1058030032AB7B017A0379381266F3900468E004C3
:10581300F070A4900467E004F0809C9003E9120AFE
:06582300FC000000002261
:0B501F00900469EBF0A3EAF0A3E9F0B5
:10502A00E4A3F0A3F0A3F0A3F0FFFE900469E0FB71
:10503A00A3E0FAA3E0F9A3E0FCA3E0F5828C8312D3
:10504A00079370030251336454600302511F9004A2
:10505A006DE02402FF90046CE034008F82F5831225
:10506A00079324D0FFE434FFFE7C007D641207F42A
:10507A00C006C00790046DE02401FF90046CE03480
:10508A00008F82F58312079324D0FFE434FFFE7C5D
:10509A00037DE81207F4D0E02FFDD0E03EFCC00407
:1050AA00C00590046DE02403FF90046CE034008F87
:1050BA0082F58312079324D0FFE434FFFE7C007D3F
:1050CA000A1207F4D0E02FFFD0E03EFE90046DE014
:1050DA002404FD90046CE034008D82F5831207935A
:1050EA0024D0FDEC34FFCD2FFFED3EFEC390046FBC
:1050FA00E09FEE6480F890046EE06480985005EEBC
:10510A00F0A3EFF090046DE02404F090046CE03416
:10511A0000F002503590046DE004F060030250354F
:10512A0090046CE004F002503590046EE0FEA3E0B7
:01513A00FF75
:01513B002251
:1060FD00900467EEF0A3EFF07E027F047D007B013C
:10610D007A017931120C887B017A0179319004681A
:10611D00E07F00FE3395E0FDFC9004727401F0A366
:10612D00E4F0125FF87B017A01793112501FEE33E2
:10613D0095E0FDFC9003FA120AF0120D48900486CA
:10614D0074FFF0A37431F0A3743FF0900467E0FF87
:10615D00A3E0900489CFF0A3EFF07B017A037938A7
:03616D000232AB50
:1054870090039FE06003025588126BBE9003CBE048
:10549700F8A3E0F9A3E0FAA3E0FBC3EF9BFFEE9AC2
:1054A700FEED99FDEC98FC9003FAE0F8A3E0F9A370
:1054B700E0FAA3E0FBC31209F34003025592126B13
:1054C700BE9003CB120AF09003DEE07002A3E06007
:1054D700189003D8E07002A3E0700E90039F04F0C9
:1054E7007BFF7A3179510266F39003D6E0FEA3E0A1
:1054F700FF1260FD9003DCE0FEA3E0FF9003DAE01B
:10550700FCA3E0FDC39FEC9E502F9003D6E0B506A9
:1055170019A3E0B507149003D6ECF0A3EDF09003C0
:10552700DEE07002A3E06063803C9003D7E004F004
:1055370070599003D6E004F0229003DCE0FEA3E06C
:10554700FF9003D6E0B5062AA3E0B507259003DA56
:10555700E0FFA3E09003D6CFF0A3EFF09003DEE0E7
:105567007002A3E060259003D9E024FFF09003D8F0
:10557700800A9003D7E024FFF09003D6E034FFF0D1
:0B558700229003FA120AFC0000000A48
:0155920022F6
:10607D009004F8120AFC00000000E49004F6F0A36E
:10608D00F09004F6E0FEA3E0FFC39408EE64809464
:10609D0080505AA3E0F8A3E0F9A3E0FAA3E0FB9047
:1060AD00000875F00EEF120B2DEE75F00EA4258382
:1060BD00F583E0FCA3E0FDA3E0FEA3E0FF1200A545
:1060CD009004F8120AF09004F8E0FCA3E0FDA3E0C0
:1060DD00FEA3E0FFEC4D4E4F60037F01229004F7CD
:0F60ED00E004F0709C9004F6E004F080947F00D3
:0160FC002281
:100D390078317C017D017B017A037938120C6B7B58
:050D4900017A0179317F
:0B0D4E00900469EBF0A3EAF0A3E9F0C9
:100D5900E4900470F0A3F0900474F0A3F012077A01
:100D69006423600302102A900469E0FBA3E0FAA35C
:100D7900E0F99000041207936450600302102A906E
:100D890000051207936453600302102A90000612AB
:100D990007936443600302102A90000712079364C3
:100DA9004B600302102A90000C1207936421600320
:100DB90002102A90000212079324D0FFE434FFFEA8
:100DC9007C007D0A1207F4C006C0079000011207D3
:100DD9009324D0FFE434FFFE7D641207F4D0E02FA2
:100DE900FFD0E03EFE90000312079324D0FDEC34BF
:100DF900FFCD2FFFED3E90046CF0A3EFF090000AB9
:100E090012079324D0FFE434FFFE7D0A1207F4C0D1
:100E190006C00790000912079324D0FFE434FFFEAF
:100E29007D641207F4D0E02FFFD0E03EFE90000B66
:100E390012079324D0FDEC34FFCD2FFFED3EFE9039
:100E49000476F0A3EFF0C3940CEE6480947E500313
:100E59000217A1900476E0FEA3E0FFD394F4EE64B8
:100E690080948140030217A1C390046DE094089017
:100E7900046CE0940040030217A190000812079344
:100E8900FD642B6011EDB42D0DC3E49FFFE49E902A
:100E99000476F0A3EFF090046DE025E0FF90046C78
:100EA900E033FE74172FF58274013EF583E0FCA34D
:100EB900E0FDEC1203CBA804A905AA06AB07900430
:100EC9006CE0FEA3E090000475F00E120B2DEE7598
:100ED900F00EA42583F583E0FCA3E0FDA3E0FEA3C7
:100EE900E0FF1200A1C004C005C006C00790047647
:100EF900E0FCA3E0FDEC1203CBD003D002D001D07B
:100F0900001200A590047C120AF0900476E0FCA37C
:100F1900E0FD90046DE025E0FF90046CE033FE7481
:100F2900172FF58274013EF583ECF0A3EDF07F00F5
:100F39007E107D1C7C4590047CE0F8A3E0F9A3E0D9
:100F4900FAA3E0FB12033C600E400C90047C120AE9
:100F5900FC451C10008024E4FFFE7DFA7C439004CC
:100F69007CE0F8A3E0F9A3E0FAA3E0FB12033C500C
:100F79000A90047C120AFC43FA000090047CE0FC0D
:100F8900A3E0FDA3E0FEA3E0FF90046CE0FAA3E078
:100F9900FB90000075F00E120B2DEA75F00EA425DA
:100FA90083F583120AF090000475F00EEB120B2DF5
:100FB900EA75F00EA42583F583E0F8A3E0F9A3E030
:100FC900FAA3E0FB90046CE0FEA3E090000075F04A
:100FD9000E120B2DEE75F00EA42583F583E0FCA30C
:100FE900E0FDA3E0FEA3E0FF1200A1E4FBFA79A073
:100FF900784012029F90046CE0FAA3E09000087513
:10100900F00E120B2DEA75F00EA42583F583120A52
:10101900F0126BBE9003E0120AF09003E47401F041
:1010290022900469E0FBA3E0FAA3E0F912077A64CD
:101039002360030211319000041207936450600386
:1010490002113190000512079364446003021131C3
:101059009000061207936453600302113190000750
:101069001207936454600302113190000812079328
:101079006421600302113190000212079324D0FF0A
:10108900E434FFFE7C007D0A1207F4C006C0079015
:10109900000112079324D0FFE434FFFE7D64120798
:1010A900F4D0E02FFFD0E03EFE9000031207932416
:1010B900D0FDEC34FFCD2FFFED3EFE90046CF0A384
:1010C900EFF0C39408EE940040030217A190046C5A
:1010D900E0FAA3E0FB90000875F00E120B2DEA75FB
:1010E900F00EA42583F583120AFC0000000090008D
:1010F9000475F00EEB120B2DEA75F00EA42583F59D
:1011090083E0FCA3E0FDA3E0FEA3E0FF90046CE014
:10111900FAA3E090000075F00E120B2DEA75F00E9F
:10112900A42583F583020AF0900474021301900444
:1011390069E0FBA3E0FAA3E0F9900470E0FEA3E004
:10114900F5828E8312079370030217A1642360034B
:10115900021212900474E07004A3E06401600302B7
:101169001212900470E0FFA3E0A3CFF0A3EFF0E424
:1011790090046CF0A3F0900471E004F07006900400
:1011890070E004F0900469E0FBA3E0FAA3E0F990B1
:101199000470E0FEA3E0F5828E83120793FF6039A5
:1011A90064506035EFFB7A0090046CE0FEA3E0FF29
:1011B9007C007D0A1207F4EF2BFFEA3ECF24D0CF43
:1011C90034FF90046CF0A3EFF0900471E004F07028
:1011D900B3900470E004F080AB900472E0FEA3E0E9
:1011E900FFC3900471E09FFF900470E09ECF24FF3D
:1011F900CF34FFFEEF64034E9004746003021301C1
:10120900E4F0A37402F0021137900469E0FBA3E053
:10121900FAA3E0F9900470E0FEA3E0FFF5828E8363
:1012290012079364506003021312900474E070046F
:10123900A3E064026003021312900472EEF0A3EFBC
:10124900F0900478120AFC00000000900471E00498
:10125900F07006900470E004F0900469E0FBA3E0EC
:10126900FAA3E0F9900470E0FEA3E0F5828E831200
:10127900079360606454605C900470A3E0F5828E0B
:1012890083120793FCE41203D0C004C005C006C052
:1012990007E4FFFE7D207C41900478E0F8A3E0F9A3
:1012A900A3E0FAA3E0FB120196D003D002D001D04B
:1012B900001200A5E4FBFA794078C21200A5900457
:1012C90078120AF0900471E004F0708D900470E0D7
:1012D90004F08085900472E0FEA3E0FFC3900471DE
:1012E900E09FFF900470E09ECF24FFCF34FFFEEF14
:1012F90064044E9004746008E4F0A304F00211370A
:10130900E4F0A37403F0021137900469E0FBA3E051
:10131900FAA3E0F9900470E0FEA3E0FFF5828E8362
:1013290012079364546003021790900474E07004E8
:10133900A3E064036003021790900472EEF0A3EF38
:10134900F0E490046EF0A3F0900471E004F07006EC
:10135900900470E004F0900469E0FBA3E0FAA3E0D4
:10136900F9900470E0FEA3E0F5828E83120793FFE3
:10137900603964216035EFFB7A0090046EE0FEA3CA
:10138900E0FF7C007D0A1207F4EF2BFFEA3ECF2431
:10139900D0CF34FF90046EF0A3EFF0900471E00415
:1013A900F070B3900470E004F080ABC390046FE078
:1013B90094F490046EE09401500CA3E0242CF09076
:1013C900046EE03401F0900474E4F0A304F0900496
:1013D90072E0FEA3E0FFC3900471E09FFF900470E8
:1013E900E09ECF24FFCF34FFFEEF64044E6003027A
:1013F9001137C390046DE0940890046CE0940040A8
:101409000302164A7F007E407D1C7C45900478E0EB
:10141900F8A3E0F9A3E0FAA3E0FB12033C6005405E
:101429000302164AE4FFFE7DFA7C43900478E0F853
:10143900A3E0F9A3E0FAA3E0FB12033C5003021670
:101449004AD390046FE0941090046EE0942740030F
:1014590002164A900478E0F8A3E0F9A3E0FAA3E0C1
:10146900FBC000C001C002C00390046DE025E0FF8D
:1014790090046CE033FE74172FF58274013EF583F6
:10148900E0FCA3E0FDEC1203CBD003D002D001D0E5
:10149900001200A5900478120AF07F007E107D1CCE
:1014A9007C45900478E0F8A3E0F9A3E0FAA3E0FB17
:1014B90012033C600C400A900478120AFC451C1087
:1014C90000E4FFFE7DFA7C43900478E0F8A3E0F99C
:1014D900A3E0FAA3E0FB12033C500A900478120A35
:1014E900FC43FA0000C390046FE0941490046EE08A
:1014F9009400900478E0FC5067A3E0FDA3E0FEA30C
:10150900E0FF90046CE0FAA3E0FB90000075F00E98
:10151900120B2DEA75F00EA42583F583120AF090BB
:101529000478E0FCA3E0FDA3E0FEA3E0FF90000443
:1015390075F00EEB120B2DEA75F00EA42583F583D9
:10154900120AF090000875F00EEB120B2DEA75F0F7
:101559000EA42583F583120AFC0000000002164A36
:10156900A3E0FDA3E0FEA3E0FF90046CE0FAA3E092
:10157900FB90000075F00E120B2DEA75F00EA425F4
:1015890083F583120AF090046EE0FEA3E0FF900059
:101599000C75F00EEB120B2DEA75F00EA42583F5F0
:1015A90083EEF0A3EFF090000C75F00EEB120B2D0B
:1015B900EA75F00EA42583F583E0FCA3E0FDEC12A7
:1015C90003CBE4FBFA79A0784112029FC004C0055D
:1015D900C006C00790046CE0FEA3E0FF900004750C
:1015E900F00E120B2DEE75F00EA42583F583E0F8AD
:1015F900A3E0F9A3E0FAA3E0FB90000075F00EEF79
:10160900120B2DEE75F00EA42583F583E0FCA3E003
:10161900FDA3E0FEA3E0FF1200A1D003D002D00198
:10162900D00012029F90046CE0FAA3E090000875C4
:10163900F00E120B2DEA75F00EA42583F583120A1C
:10164900F090046CE07003A3E0F46003021137909A
:10165900046CF0A3F0C390046DE0940890046CE06E
:1016690094004003021137A3E025E0FF90046CE0E9
:1016790033FE74172FF58274013EF583E0FEA3E073
:1016890024DCFDEE3405FC1203CB900478120AF039
:10169900900478E0FCA3E0FDA3E0FEA3E0FF900442
:1016A9006CE0FAA3E0FB90000075F00E120B2DEA36
:1016B90075F00EA42583F583120AF090046EE0FEFE
:1016C900A3E0FF90000C75F00EEB120B2DEA75F0FC
:1016D9000EA42583F583EEF0A3EFF090000C75F0CE
:1016E9000EEB120B2DEA75F00EA42583F583E0FCB1
:1016F900A3E0FDEC1203CBE4FBFA79A078411202D6
:101709009FC004C005C006C00790046CE0FEA3E0BA
:10171900FF90000475F00E120B2DEE75F00EA42546
:1017290083F583E0F8A3E0F9A3E0FAA3E0FB9000D6
:101739000075F00EEF120B2DEE75F00EA42583F552
:1017490083E0FCA3E0FDA3E0FEA3E0FF1200A1D02B
:1017590003D002D001D00012029F90046CE0FAA3DA
:10176900E090000875F00E120B2DEA75F00EA42515
:1017790083F583120AF090046DE004F0700690047A
:101789006CE004F002165E900471E004F0700690BB
:081799000470E004F0021137B6
:0117A1002225
:106A420012077A6013B5050790045CE01207C07460
:096A52000129F9E43AFA80E82276
:106943007FFF7EFF7DFF7CFF1261707B017A007900
:106953007090045FE4F0A374C1F07F007EF07DFFCC
:056963007CFF025593CA
:104324009003CFE070030244AB126BBE9003D1E064
:10433400F8A3E0F9A3E0FAA3E0FBC3EF9BFFEE9A36
:10434400FEED99FDEC98FCE47BF47A01F9F8C312D4
:1043540009F350269003D0E07020126BBE9003D175
:10436400120AF07F807E257D007C001261D8126CD9
:104374004B7BFF7A31795D02440A126BBE9003D104
:10438400E0F8A3E0F9A3E0FAA3E0FBC3EF9BFFEEA0
:104394009AFEED99FDEC98FCE47BF47A01F9F8C3FC
:1043A4001209F3501F9003D0E064017017126BBE22
:1043B4009003D1120AF07F007EC27D017C0012615D
:1043C400D8024454126BBE9003D1E0F8A3E0F9A3E1
:1043D400E0FAA3E0FBC3EF9BFFEE9AFEED99FDEC40
:1043E40098FCE47BF47A01F9F8C31209F3501C90A9
:1043F40003D0E064027014126BBE9003D1120AF071
:104404007BFF7A3179681268408045126BBE900355
:10441400D1E0F8A3E0F9A3E0FAA3E0FBC3EF9BFF2C
:10442400EE9AFEED99FDEC98FCE47BF47A01F9F840
:10443400C31209F350219003D0E064037019126B86
:10444400BE9003D1120AF07BFF7A31798012684062
:104454009003D0E004F022126BBE9003D1E0F8A3E5
:10446400E0F9A3E0FAA3E0FBC3EF9BFFEE9AFEEDB5
:1044740099FDEC98FCE47BF47A01F9F8C31209F392
:1044840050259003D0E06404701D126BBE9003D1DC
:10449400120AF07BFF7A3179971268409003D0E0DA
:0744A40004F0E49003CFF0E7
:0144AB0022EE
:04001E0075C7602220
:1066B60090048674FFF0A37431F0A374ACF0EF2459
:1066C600DCFFEE3405A3F0A3EFF0AE04C374DC9D4B
:1066D60090048CF074059E90048BF07B017A03790C
:0D66E600381232AB7B017A0379380267D499
:1047A50090047DEEF0A3EFF0A3ECF0A3EDF0A3EA07
:1047B500F0A3EBF090047FE0FCA3E0FDEC1203CB4B
:1047C50090047DE0FAA3E0FB90000075F00E120B5B
:1047D5002DEA75F00EA42583F583120AF090048165
:1047E500E0FEA3E0FF90000C75F00EEB120B2DEA36
:1047F50075F00EA42583F583EEF0A3EFF090000C81
:1048050075F00EEB120B2DEA75F00EA42583F583DA
:10481500E0FCA3E0FDEC1203CBE4FBFA79A07841C0
:1048250012029FC004C005C006C00790047DE0FECB
:10483500A3E0FF90000475F00E120B2DEE75F00E3F
:10484500A42583F583E0F8A3E0F9A3E0FAA3E0FB50
:1048550090000075F00EEF120B2DEE75F00EA425ED
:1048650083F583E0FCA3E0FDA3E0FEA3E0FF1200D7
:10487500A1D003D002D001D00012029F90047DE0A8
:10488500FAA3E090000875F00E120B2DEA75F00EF4
:10489500A42583F583120AF090048674FFF0A374AF
:1048A50031F0A374CDF090047DE0FEA3E0FF900409
:1048B50089EEF0A3EFF090047FE0FDA3E090048B78
:1048C500CDF0A3EDF0900481E0FDA3E090048DCD43
:1048D500F0A3EDF0EF7802C333CE33CED8F9240E32
:1048E500F58274043EF583E0FCA3E0FDA3E0FEA39E
:1048F500E0FF90048F120AF07B017A0379381232B7
:0A490500AB7B017A0379380266F3F8
:06419600900467120AF01C
:10419C00E4900479F0A3F0A3F0A3F0FFFEFDFC90F3
:1041AC00046BE0F8A3E0F9A3E0FAA3E0FB12033CF4
:1041BC005003024320E490047BF0A3F0900475F0CC
:1041CC00A3F090046BE0FCA3E0FDA3E0FEA3E0FFF2
:1041DC00900481120AF090046FE0FCA3E0FDA3E0D0
:1041EC00FEA3E0FF900485120AF0900475E0FCA396
:1041FC00E0FDEC1203CB900489120AF090048D744C
:10420C0001F0A37403F0A374FEF0900467E0FCA328
:10421C00E0FDA3E0FEA3E0FF1221ADEF4E7017907E
:10422C000475E0FFA3E0900479CFF0A3EFF0A3E4D2
:10423C00F0A304F08020900476E024FFF090047545
:10424C00E034FFF0C3A3E09479900475E0648094AB
:10425C007F40030241CE90047BE07002A3E0700328
:10426C0002432090046BE0FCA3E0FDA3E0FEA3E07E
:10427C00FF900481120AF090046FE0FCA3E0FDA310
:10428C00E0FEA3E0FF900485120AF0900479E0FCB4
:10429C00A3E0FDEC1203CB900489120AF090048D7C
:1042AC007401F0A37403F0A374FEF0900467E0FCB7
:1042BC00A3E0FDA3E0FEA3E0FF1221AD900477E4A0
:1042CC00F0A304F0900477E0FEA3E0FFC00625E025
:1042DC00FDEE33FC743E2DF58274043CF583E0FC5A
:1042EC00A3E0FD900473E0FAA3E0FBD0061247A50F
:1042FC00900478E004F07006900477E004F0C3902A
:10430C000478E09404900477E06480948040B57E57
:07431C00007F0122E4FEFF17
:014323002277
:106AB800A8077401088002C333D8FCF59DE4F5BD2E
:056AC80075BC80FF22F7
:1068CC00AE07126AB8EE4488F5BC00000000E5BCC7
:1068DC0030E4FB53BCEFAFBDEF75F004A4ADBE7C50
:0868EC00002DFFEC35F0FE2247
:0B6BF700EF1FAC0670011E4C70F62270
:106B4600EF1FAA0670011E4A60087D031DED60F066
:026B560080FAC3
:016B5800221A
:1069AD00E4FDFCC3ED9FEC9E5015E4FBFA0BBB0020
:0F69BD00010ABA03F8BBE8F50DBD00010C80E438
:0169CC0022A8
:1059630041039C0041039D0041039EFF41039F01AE
:055973004203A000004A
:10646600E4FBEBC39408748094805042EB75F00E05
:10647600A42400F582E43400F583120AFC44BB80B0
:1064860000EB75F00EA42404F582E43400F58312C3
:106496000AFC44BB8000EB75F00EA42408F582E4E8
:1064A6003400F583120AFC000000000B80B4E4906F
:0764B6000335F0A3F0A3F091
:0164BD0022BC
:0B513C00900467EBF0A3EAF0A3E9F099
:1051470090046DEBF0A3EAF0A3E9F090046AE0F9AC
:10515700A3E0FAA3E0900470C9F0A3EAF0A3E9F092
:1051670090046DE0FBA3E0FAA3E0F912077AFF7061
:1051770003025251900470E0FBA3E0FAA3E0F91296
:10518700077A6F6003025244900470E0FBA3E0FAD1
:10519700A3E0F912077A6078900470A3E475F00130
:1051A700120852A9F0FA12077AFF90046DE0FBA3E8
:1051B700E475F001120852A9F0FA12077A6F60C875
:1051C70090046AA3E0FAA3E0AE02FF900470A3E0A4
:1051D700FAA3E0C39FFFEA9EFE90046DE0FBA3E005
:1051E700FAA3E0C39FF9EA9EFAE92401F9E43AFA3F
:1051F70090046DEBF0A3EAF0A3E9F090046AE0F9FC
:10520700A3E0FAA3E0900470C9F0A3EAF0A3E9F0E1
:10521700900470E0FBA3E0FAA3E0F912077A6003B9
:10522700025167900467A3E0FAA3E0AE02FF90047F
:105237006DA3E0FAA3E0C39FFFEA9EFE2290046EEF
:0D524700E475F00112083C025167E4FEFF1F
:015254002237
:08490F009004E3ECF0A3EDF0CD
:10491700E4A3F0A3F09004E4E024FFFF9004E3E0B5
:1049270034FFFEC39004E6E09FEE6480F89004E550
:10493700E06480984003024A4DE0FEA3E0FF900444
:10494700E9EEF0A3EFF02401FFE43E9004E7F0A3C3
:10495700EFF09004E3E0FEA3E0FF9004E7E0FCA3A0
:10496700E0FDC39FEE6480F8EC648098504DED2520
:10497700E0FFEC338F82F583120893FDACF09004CF
:10498700EAE025E0FF9004E9E0338F82F58312081F
:1049970093D39DEC6480F8E5F0648098400D900413
:1049A700E7E0FFA3E0A3CFF0A3EFF09004E8E00473
:1049B700F0709F9004E7E004F080979004E5E0FE34
:1049C700A3E0FF9004E9E0FCA3E0FD6F7002EC6E4A
:1049D7006060ED25E0FFEC338F82F583120893FFCB
:1049E7009004EBE5F0F0A3EFF09004E6E025E0FF9C
:1049F7009004E5E0338F82F583120893FD9004EA73
:104A0700E025E0FF9004E9E0338F82F583E5F08D40
:104A1700F01208EA9004EBE0FCA3E0FD9004E6E066
:104A270025E0FF9004E5E0338F82F583EC8DF012EB
:104A370008EA9004E6E004F0600302491C9004E5EC
:064A4700E004F002491C2E
:014A4D002246
:106AF600D3EF9400EE64809480400122C3E49FFFAC
:046B0600E49EFE22E9
:106A2700E4F593F594F591F592F59575967FF5B1A3
:0B6A3700F5B2F5B3F5B4F5C9F5CA22BD
:0D000E00C285C286C287C2B5C2B6C2B72283
:10672E00EF14601614601914601C14601F1460229C
:10673E0024057023ED24FF928522ED24FF928622FC
:10674E00ED24FF928722ED24FF92B522ED24FF92D5
:08675E00B622ED24FF92B722E0
:0E640D00900467EEF0A3EFF0A3ECF0A3EDF027
:10641B00E4A3F0A3F0900467E0FEA3E0FFC39004B5
:10642B006CE09FEE6480F890046BE0648098502AD7
:10643B00D2A6900469E0FEA3E0FF1269ADC2A6905C
:10644B000469E0FEA3E0FF1269AD90046CE004F078
:0A645B0070C390046BE004F080BBF6
:016465002214
:0B6C0200EF1FAC0670011E4C70F62264
:076C3300D282D283D281223C
:09635700F9EF1207D212077AFFD8
:10636000A907E4FDFBEBC394087480948050427E3F
:10637000007401A803088005C333CE33CED8F9FFDB
:10638000E9F582EF558224FF9283D281C2817F0A90
:106390007E00126C02D28130840DA8037401088043
:1063A00002C333D8FC4DFD7F0A7E00126C020B80C5
:0363B000B4AF0582
:0163B30022C7
:1059AA00900453EBF0A3EAF0A3E9F0C2827F01125C
:1059BA006360900453E0FBA3E0FAA3E0F9EF120757
:1059CA00C07F42126360900453E0FBA3E0FAA3E0B5
:1059DA00900001126357900453E0FBA3E0FAA3E09E
:1059EA00900002126357900453E0FBA3E0FAA3E08D
:1059FA00F9900003126358900453E0FBA3E0FAA362
:105A0A00E0F9900004126358900453E0FBA3E0FA13
:105A1A00A3E0F9900005126358900453E0FBA3E059
:105A2A00FAA3E0F9900006126358900453E0FBA32E
:105A3A00E0FAA3E0F9900007126358900453E0FBE0
:105A4A00A3E0FAA3E0F9900008EF1207D2D282226B
:0F5978004404FE000000004104FC004104FD0057
:106A5B00438E805389F0438901758AAA758CAAC22B
:086A6B008DD28CD2A9D2AF221A
:106B0A00438E4053890FE4F58BF58DC28FD28ED216
:046B1A00ABD2AF2229
:106B590043D10275D59A75D4A943D10843AF20D240
:026B6900AF2259
:1064BE0090039DE075F00EA42404F582E43400F5FB
:0F64CE0083E0FCA3E0FDA3E0FEA3E0FF120404C3
:1064DD0090044CEEF0A3EFF0FDAC06EC1203CB7B79
:1064ED009A7A9979A57841120196A804A905AA0668
:1064FD00AB077F007EFF7D7F7C471200A112040455
:07650D008F8AEEFF8F8C2244
:0F6BBE009004FEE0FCA3E0FDA3E0FEA3E0FF22B5
:1066380090044F120AF0E4FFFEFDFC90044FE0F8CE
:10664800A3E0F9A3E0FAA3E0FB12033C6011400FBA
:1066580090044FE0FCA3E0FDA3E0FEA3E0FF22903E
:10666800044FE0FCA3E0FDA3E0FEA3E0FF1203B5A6
:0166780022FF
:0546340090044CEFF0C2
:1046390075F00EA42408F582E43400F583E0FCA3A8
:10464900E0FDA3E0FEA3E0FFE4FBFAF9F812033C66
:1046590070030247A490044CE075F00EA42400F501
:1046690082E43400F583E0FCA3E0FDA3E0FEA3E0CF
:10467900FF12040490044DEEF0A3EFF0D394BAEEC8
:1046890064809489400C90044D7409F0A374BAF0C5
:104699008018C390044EE094F490044DE064809433
:1046A9008150077401F0A374F4F090044DE0FCA369
:1046B900E0FDEC1203CB90044CE075F00EA4240449
:1046C900F582E43400F583E0F8A3E0F9A3E0FAA366
:1046D900E0FB1200A1126638C004C005C006C0077D
:1046E90090044CE075F00EA42408F582E43400F53A
:1046F90083E0FCA3E0FDA3E0FEA3E0FFA804A90575
:10470900AA06FB1200A5126638A804A905AA06ABD9
:1047190007D007D006D005D00412033C40379004D7
:104729004DE0FCA3E0FDEC1203CB90044CE0FB75DB
:10473900F00EA42404F582E43400F583120AF0EBA8
:1047490075F00EA42408F582E43400F583120AFCFE
:10475900000000002290044CE075F00EA42404F53A
:1047690082E43400F583C083C082E0FCA3E0FDA3AA
:10477900E0FEA3E0FF90044CE075F00EA42408F5D8
:1047890082E43400F583E0F8A3E0F9A3E0FAA3E0BA
:0B479900FB1200A5D082D083120AF0B2
:0147A40022F2
:03000B00024B8C19
:104B8C00C0E0C0F0C083C082C0D075D000C000C0EF
:0D4B9C0001C002C003C004C005C006C00770
:104BA90090039DE0C39408748094804002E4F090DF
:104BB90004FCE06003024C3F90039DE075F00EA4F5
:104BC9002408F582E43400F583E0FCA3E0FDA3E0CA
:104BD900FEA3E0FFEC4D4E4F7010126BBEE47BB8A4
:104BE9007A0BF9F8D31209F3401D1264BE90039DA4
:104BF900E0FF7D0112672E90039DE0FF124634907D
:104C090004FDE4F0024C899004FDE004F0E0C39453
:104C1900037480948050171264BE90039DE0FF7D59
:104C29000112672E90039DE0FF12463480529004D2
:104C3900FD7403F0804A90039DE075F00EA42404EE
:104C4900F582E43400F583E0FCA3E0FDA3E0FEA3D4
:104C5900E0FF120404C374C49FFF74099EFEC3EFEE
:104C69009414EE6480948050047E007F141264DDF5
:104C790090039DE0FFE4FD12672E90039DE004F090
:104C89009004FCE070047F0180027F009004FCEF37
:014C9900F02A
:104C9A00D007D006D005D004D003D002D001D0006E
:0B4CAA00D0D0D082D083D0F0D0E03218
:03001B0002698CEB
:10698C00C0E0C083C082758B00758D009003A1E0C0
:10699C0004F070069003A0E004F0D082D083D0E025
:0169AC0032B8
:03009B000265609B
:10656000C0E0C0F0C083C082C0D075D000C000C001
:1065700004C005C006C0079004FEE0FCA3E0FDA334
:10658000E0FEA3E02401FFE43EFEE43DFDE43CFC2C
:106590009004FE120AF0D007D006D005D004D00037
:0B65A000D0D0D082D083D0F0D0E03209
:105987004104CE004104CF004404D000000000428F
:1059970004C400004104C7004204C800004204CB0D
:0259A7000000FE
:0F6BCD009004D0E0FCA3E0FDA3E0FEA3E0FF22D4
:10623900900453120AF0439850900453E0F8A3E0F5
:10624900F9A3E0FAA3E0FB7F007E607D547C001295
:106259000953EFF404F5D7900453E0F8A3E0F9A348
:10626900E0FAA3E0FB7F007E607D547C00120953B5
:10627900C3E49FFFE49EFE74019DFDE49CFC780845
:10628900120A048FD6438E15E4F587D2AFD2AC2219
:1062F900900453120AF0759A50900453E0F8A3E001
:10630900F9A3E0FAA3E0FB7F007E607D547C0012D4
:106319000953EFF404F5D7900453E0F8A3E0F9A387
:10632900E0FAA3E0FB7F007E607D547C00120953F4
:10633900C3E49FFFE49EFE74019DFDE49CFC780884
:0E634900120A048FD675AF0143BA01D2AF22FB
:1061D800900453120AF053BAFB758410900453E0EC
:1061E800F8A3E0F9A3E0FAA3E0FB7F007E607D540A
:1061F8007C00120953EFF404F5D7900453E0F8A398
:10620800E0F9A3E0FAA3E0FB7F007E607D547C0008
:10621800120953C3E49FFFE49EFE74019DFDE49CB4
:10622800FC7808120A048FD6438E1443AF10D2AFFD
:016238002243
:036C6F00D2AC2282
:036C7200C2AC228F
:0400960043AF012251
:046C470053AFFE2227
:046C4B0043AF102221
:046C4F0053AFEF222E
:10002600E4FDFC8F992099120DEDAE0470010C14BD
:0C003600C394E8EE6480948340EBC29910
:01004200229B
:0F687300A3E475F001120852A9F0FA12077AFF98
:10688200E4FDFC8F9BE59A20E1120DEDAE04700150
:0F6892000C14C394E8EE6480948340E9539AFD9C
:0168A10022D4
:1069CD00E4FDFC8F85E58420E1120DEDAE04700130
:0F69DD000C14C394E8EE6480948340E95384FD66
:0169EC002288
:1066F300900483EBF0A3EAF0A3E9F0C28CC2A99063
:106703000483E0FBA3E0FAA3E0F912077A60179091
:106713000483A3E475F001120852A9F0FA12077A70
:0B672300FF12002680D9D28CD2A922E0
:10696800900453EBF0A3EAF0A3E9F0900453E0FBA2
:10697800A3E0FAA3E0F912077A60089004531268BA
:046988007380E8220E
:10684000900453EBF0A3EAF0A3E9F0900453E0FBCB
:10685000A3E0FAA3E0F912077A6017900453A3E4C7
:1068600075F001120852A9F0FA12077AFF1269CDE9
:0368700080D922AA
:1067D400900467EBF0A3EAF0A3E9F0C28CC2A9909D
:1067E40003357401F0900467E0FBA3E0FAA3E0F939
:1067F40012077A600890046712687380E8E49003D3
:0768040035F0D28CD2A9226D
:03002300024F0089
:0D4F0000C0E0C0F0C083C082C0D075D010EA
:104F0D00209803025014C2989004C6E599F0E0FF72
:104F1D007013A3E004F0E0C3940F74809480400AF2
:104F2D0075C76080059004C7E4F0900335E0600319
:104F3D00025014EFB43C089003367404F08038909E
:104F4D000336E070399004C6E0FFB42408900336B0
:104F5D007401F08022EFB423089003367402F080C0
:104F6D0016EFB47B089003367403F0800AEFB43C5F
:104F7D00069003367404F09004C4E4F0A3F090049A
:104F8D00C6E0FF9004C4E475F001120852FC7431C0
:104F9D0025F0F58274013CF583EFF0900336E0FDCA
:104FAD007C0064047007EF643E704F802FED640148
:104FBD004C70099004C6E0B421028020900336E0C5
:104FCD00640270099004C6E0B42102800F9003368C
:104FDD00E0640370259004C6E0B47D1E9004C4E027
:104FED00FEA3E02431F58274013EF583E4F09003D5
:104FFD003504F09004C4E4F0A3F0C39004C4E0942D
:07500D00024004E4F0A3F0EF
:0B501400D0D0D082D083D0F0D0E032AA
:0300430002525511
:0D525500C0E0C0F0C083C082C0D075D01092
:10526200E59A20E0030253639004CAE59BF0539A47
:10527200FE900335E060030253639004CAE0B43C3D
:10528200189003367404F09004C8E4F0A3F0126B93
:10529200BE9004D0120AF0803F900336E07039903D
:1052A20004CAE0FFB424089003367401F08022EFB0
:1052B200B423089003367402F08016EFB47B089092
:1052C20003367403F0800AEFB43C0690033674048C
:1052D200F09004C8E4F0A3F09004CAE0FF9004C880
:1052E200E475F001120852FC743125F0F582740164
:1052F2003CF583EFF0900336E0FD7C006404700718
:10530200EF643E704F802FED64014C70099004CA27
:10531200E0B421028020900336E064027009900418
:10532200CAE0B42102800F900336E0640370259036
:1053320004CAE0B47D1E9004C8E0FEA3E02431F567
:105342008274013EF583E4F090033504F09004C8C2
:10535200E4F0A3F0C39004C8E094024004E4F0A394
:01536200F05A
:0B536300D0D0D082D083D0F0D0E03258
:0300930002536EA7
:0D536E00C0E0C0F0C083C082C0D075D01078
:10537B00E58420E00302547C5384FE9004CDE58544
:10538B00F0900335E0600302547C9004CDE0B43C14
:10539B00189003367404F09004CBE4F0A3F0126B76
:1053AB00BE9004D0120AF0803F900336E070399023
:1053BB0004CDE0FFB424089003367401F08022EF93
:1053CB00B423089003367402F08016EFB47B089078
:1053DB0003367403F0800AEFB43C06900336740472
:1053EB00F09004CBE4F0A3F09004CDE0FF9004CB5D
:1053FB00E475F001120852FC743125F0F58274014A
:10540B003CF583EFF0900336E0FD7C0064047007FD
:10541B00EF643E704F802FED64014C70099004CD0A
:10542B00E0B421028020900336E0640270099004FE
:10543B00CDE0B42102800F900336E0640370259019
:10544B0004CDE0B47D1E9004CBE0FEA3E02431F547
:10545B008274013EF583E4F090033504F09004CBA5
:10546B00E4F0A3F0C39004CBE094024004E4F0A377
:01547B00F040
:0B547C00D0D0D082D083D0F0D0E0323E
:106B8E00EF1FAC0670011E4C600500000080F12264
:106A0B004395045396FB5395E543961A53A2F743CC
:0C6A1B00A204E4F5CF75CDC075CED022EA
:076C3A0053CEFC43CE032200
:046C530053CEFC22FE
:1069ED00900507E0FCA3E0FDA3E0FEA3E0FF120A83
:0169FD000495
:0D69FE008FCFE5CD30E7FB75CDC0AFCF22C8
:1068A200E4FDFCC2A47F901269FEE4FF1269FEE4DB
:1068B200FF1269FEE4FF1269FE7FFF1269FEEFFC20
:0968C2007FFF1269FED2A4AE04AE
:0168CB0022AA
:0E6BDC00C2A47F051269FE7FFF1269FED2A4DB
:016BEA002288
:106B7D00AE07C2A47F011269FEAF061269FED2A450
:016B8D0022E5
:0A6C0D00C2A47F061269FED2A42281
:0A6C1700C2A47F041269FED2A42279
:06680B00900507120AF0DF
:10681100C2A47F031269FE78101269ED780812692B
:10682100ED900507E0FCA3E0FDA3E0FEA3E0FF126D
:0E68310069FE7FFF1269FE90050BEFF0D2A406
:01683F002236
:0F5FF80090046BEBF0A3EAF0A3E9F0A3120AF018
:10600700C2A47F031269FE90046EE0FCA3E0FDA327
:10601700E0FEA3E0FF7810120A041269FE90046EF6
:10602700E0FCA3E0FDA3E0FEA3E0FF7808120A046A
:106037001269FE90046EE0FCA3E0FDA3E0FEA3E07E
:10604700FF1269FEE4FDFCD3900473E09D90047297
:10605700E09C401F7FFF1269FE90046BE0FBA3E00A
:10606700FAA3E0F98D828C83EF1207D20DBD0001F0
:056077000C80D4D2A44E
:01607C002201
:0F4CB5009004D4EBF0A3EAF0A3E9F0A3120AF005
:104CC4009004DD120AFC000000009004D7A3A3E0C6
:104CD400FEA3E0FFEE540FFEE4C39FFF74109EFE9C
:104CE4009004E1F0A3EFF09004DBE0FCA3E0FDD33B
:104CF4009FEC9E50089004E1ECF0A3EDF09004D7F3
:104D0400E0FCA3E0FDA3E0FEA3E0FF780C120A049C
:104D14009004DD120AF09004DDE0FCA3E0FDA3E0C2
:104D2400FEA3E0FF1261709004D7E0FCA3E0FDA3B2
:104D3400E0FEA3E0FF9004E1E0FBA3E09004F4CBE9
:104D4400F0A3EBF09004D4E0FBA3E0FAA3E0F912A3
:104D540062999004E1E0FEA3E0FF9004DBE06E7052
:104D640003A3E06F60739004E1E0FEA3E0FF90040E
:104D7400D5EE8FF012083C9004D7E0F8A3E0F9A335
:104D8400E0FAA3E0FBE4FCFDEB2FFFEA3EFEED3985
:104D9400FDEC38FC9004D7120AF09004E1E0FEA385
:104DA400E0FFC39004DCE09FFF9004DBE09EFEF094
:104DB400A3EFF0D39400EE9410400C9004E174102F
:104DC400F0A3E4F0024D019004DBE0FFA3E09004C3
:094DD400E1CFF0A3EFF0024D0164
:014DDD0022B3
:10004600AB07126C0DC2A47F021269FE900503E095
:10005600FCA3E0FDA3E0FEA3E0FF7810120A041261
:1000660069FE900503E0FCA3E0FDA3E0FEA3E0FF2C
:100076007808120A041269FE900503A3A3A3E0FF01
:0D0086001269FEAF031269FED2A40200034E
:0F5C5F00900463EBF0A3EAF0A3E9F0A3120AF0BC
:105C6E00900466E0FCA3E0FDA3A3E0FFE4C39FFF66
:105C7E0074019400FED390046BE09F90046AE09E42
:105C8E004005EEF0A3EFF0126C0DC2A47F02126974
:105C9E00FE900466E0FCA3E0FDA3E0FEA3E0FF7827
:105CAE0010120A041269FE900466E0FCA3E0FDA344
:105CBE00E0FEA3E0FF7808120A041269FE90046663
:105CCE00A3A3A3E0FF1269FEE4FDFCD390046BE0F6
:105CDE009D90046AE09C401D900463E0FBA3E0FAF3
:105CEE00A3E0F98D828C83120793FF1269FE0DBD1E
:0A5CFE0000010C80D6D2A4020003BE
:0F6299009004EDEBF0A3EAF0A3E9F0A3120AF0F2
:1062A8009004F0A3A3E0FEA3E0FFEE540FFEE4C3C6
:1062B8009FFF74109EFED39004F5E09F9004F4E0D5
:1062C8009E4005EEF0A3EFF09004F0E0FCA3E0FDA3
:1062D800A3E0FEA3E0FFA3E0FBA3E090045FCBF004
:1062E800A3EBF09004EDE0FBA3E0FAA3E0F902557C
:0162F8009312
:0F559300900458EBF0A3EAF0A3E9F0A3120AF09A
:1055A20090045BA3A3A3E0FFE4C39FFF74019400F4
:1055B200FE900461F0A3EFF090045FE0FCA3E0FD35
:1055C200D39FEC9E5006A3ECF0A3EDF090045BE0B9
:1055D200FCA3E0FDA3E0FEA3E0FF900461E0FBA3D7
:1055E200E090046ACBF0A3EBF0900458E0FBA3E058
:1055F200FAA3E0F9125C5F900461E0FEA3E0FF9081
:10560200045FE06E7003A3E06F606F900461E0FEE0
:10561200A3E0FF900459EE8FF012083C90045BE087
:10562200F8A3E0F9A3E0FAA3E0FBE4FCFDEB2FFF13
:10563200EA3EFEED39FDEC38FC90045B120AF09074
:105642000461E0FEA3E0FFC3900460E09FFF9004CA
:105652005FE09EFEF0A3EFF0D39400EE9401400AC7
:10566200A37401F0A3E4F00255CE90045FE0FFA31F
:0A567200E0A3CFF0A3EFF00255CE45
:01567C00220B
:1061700090046B120AF090046BE0FCA3E0FDA3E036
:10618000FEA3E0FF780C120A1790046B120AF012BB
:106190006C0D120003C2A47F201269FE90046BE014
:1061A000FCA3E0FDA3E0FEA3E0FF7810120A0412B6
:1061B00069FE90046BE0FCA3E0FDA3E0FEA3E0FF1A
:1061C0007808120A041269FE90046BA3A3A3E0FFEF
:0861D0001269FED2A4020003D3
:106B6B00126C0D120003C2A47FC71269FED2A402DD
:026B7B00000315
:08000300126BDCEF20E0F92292
:106B9E00C2A47FB91269FED2A47F037E00026B8E5F
:106BAE00C2A47FAB1269FED2A47F037E00026B8E5D
:0C6BEB00244447543A312D392C3121004C
:01009A002243
:1068F40090039FE0602120C41E7F147E001269ADC6
:1069040020C4147BFF7A6B79EB1217B77D647C008B
:086914007F017E0012640D22D8
:105D0800900453120AF0E4FFFE7D207C4190045376
:105D1800E0F8A3E0F9A3E0FAA3E0FB1201969004EF
:105D280063E0FBA3E0FAA3E0F9120A7AE4FFFE7D40
:105D3800207C41900457E0F8A3E0F9A3E0FAA3E03F
:105D4800FB120196900463E0FBA3E0FAA3E0F9904C
:105D58000004120A94E4FFFE7D207C4190045BE07D
:105D6800F8A3E0F9A3E0FAA3E0FB1201969004631C
:105D7800E0FBA3E0FAA3E0F9900008120A94E4FF1C
:105D8800FE7D207C4190045FE0F8A3E0F9A3E0FAEF
:105D9800A3E0FB120196900463E0FBA3E0FAA3E002
:075DA800F990000C020A94BF
:0621AD0090047D120AF00F
:1021B30090047DE0FCA3E0FDA3E0FEA3E0FFE4FBCD
:1021C300FA7920784112019690047D120AF0900466
:1021D30081E0FCA3E0FDA3E0FEA3E0FFE4FBFA79CA
:1021E300207841120196900481120AF0900485E050
:1021F300FCA3E0FDA3E0FEA3E0FFE4FBFA79207873
:1022030041120196900485120AF090048DE0FBA31D
:10221300E0FAA3E0F9120A2A9004A0120AF090004F
:1022230004120A4A9004A4120AF0900008120A4AFF
:102233009004A8120AF090000C120A4A9004AC12FF
:102243000AF0E4FFFEFDFC90047DE0F8A3E0F9A3AF
:10225300E0FAA3E0FB12033C700C90049C120AFC0E
:1022630000000000803D900481E0F8A3E0F9A3E0C2
:10227300FAA3E0FB90047DE0FCA3E0FDA3E0FEA352
:10228300E0FF12029F124DFEE4FBFA793478431209
:1022930001967BDA7A0F7949784012029F90049C69
:1022A300120AF0900481E0FCA3E0FDA3E0FEA3E0AA
:1022B300FFA804A905AA06FB120196C004C005C025
:1022C30006C00790047DE0FCA3E0FDA3E0FEA3E0CD
:1022D300FFA804A905AA06FB120196D003D002D0D9
:1022E30001D0001200A5125B0C900481120AF09039
:1022F3000481E0FCA3E0FDA3E0FEA3E0FFC004C073
:1023030005C006C0077FDA7E0F7D497C40900489B3
:10231300E0F8A3E0F9A3E0FAA3E0FB120196E4FBE3
:10232300FA7934784312029F1244F49004ACE0F833
:10233300A3E0F9A3E0FAA3E0FB120196A804A90520
:10234300AA06AB07D007D006D005D0041200A1908F
:102353000481120AF07FDA7E0F7D497C4090048964
:10236300E0F8A3E0F9A3E0FAA3E0FB120196E4FB93
:10237300FA7934784312029F12450A9004ACE0F8CC
:10238300A3E0F9A3E0FAA3E0FB120196C004C005A1
:10239300C006C0079004A0E0F8A3E0F9A3E0FAA305
:1023A300E0FB900485E0FCA3E0FDA3E0FEA3E0FFD7
:1023B3001200A1D003D002D001D0001200A19004DA
:1023C30085120AF09004A0E0FCA3E0FDA3E0FEA3C5
:1023D300E0FF1203B5900485E0F8A3E0F9A3E0FA67
:1023E300A3E0FB12033C50057E007F01229004858D
:1023F300E0FCA3E0FDA3E0FEA3E0FFA804A905AA77
:1024030006FB120196C004C005C006C007900481F4
:10241300E0FCA3E0FDA3E0FEA3E0FFA804A905AA56
:1024230006FB120196D003D002D001D0001200A502
:10243300125B0CC004C005C006C0079004A8E0FCF2
:10244300A3E0FDA3E0FEA3E0FF9004A4E0F8A3E073
:10245300F9A3E0FAA3E0FB1200A5A804A905AA06C4
:10246300AB07D007D006D005D00412033C50057E3D
:10247300007F0222900485E0FCA3E0FDA3E0FEA31D
:10248300E0FFA804A905AA06FB120196C004C00533
:10249300C006C007900481E0FCA3E0FDA3E0FEA317
:1024A300E0FFA804A905AA06FB120196D003D002F7
:1024B300D001D0001200A5125B0CA804A905AA063E
:1024C300AB07900481E0FCA3E0FDA3E0FEA3E0FFE3
:1024D30012029F1265AB9004B8120AF0900485E0D3
:1024E300FCA3E0FDA3E0FEA3E0FFA804A905AA0660
:1024F300FB120196C004C005C006C007900481E02A
:10250300FCA3E0FDA3E0FEA3E0FFA804A905AA063F
:10251300FB120196D003D002D001D0001200A51205
:102523005B0CC004C005C006C007E4FFFEFD7C4091
:102533009004A4E0F8A3E0F9A3E0FAA3E0FB1201FE
:1025430096D003D002D001D000120196C004C0057A
:10255300C006C007900485E0FCA3E0FDA3E0FEA352
:10256300E0FFA804A905AA06FB120196C004C00552
:10257300C006C007900481E0FCA3E0FDA3E0FEA336
:10258300E0FFA804A905AA06FB120196A804A90561
:10259300AA06AB07D007D006D005D0041200A5C009
:1025A30004C005C006C0079004A4E0FCA3E0FDA39B
:1025B300E0FEA3E0FF9004A4E0F8A3E0F9A3E0FAAF
:1025C300A3E0FB120196A804A905AA06AB07D0074E
:1025D300D006D005D0041200A5C004C005C006C0B3
:1025E300079004A8E0FCA3E0FDA3E0FEA3E0FFA89E
:1025F30004A905AA06FB120196A804A905AA06AB1D
:1026030007D007D006D005D0041200A1D003D00212
:10261300D001D00012029F9004B4120AF0E4FFFE2E
:102623007D807C3F9004B4E0F8A3E0F9A3E0FAA333
:10263300E0FB12033C6002501AE4FFFE7D807CBF86
:102643009004B4E0F8A3E0F9A3E0FAA3E0FB1203DB
:102653003C50057E007F0322E4FFFEFDFC900485D1
:10266300E0F8A3E0F9A3E0FAA3E0FB12033C900433
:10267300BC5009120AFCBF8000008007120AFC3F0D
:102683008000009004B4E0FCA3E0FDA3E0FEA3E01F
:10269300FF1265ABC004C005C006C0079004BCE0D0
:1026A300FCA3E0FDA3E0FEA3E0FF9004B8E0F8A3E1
:1026B300E0F9A3E0FAA3E0FB120196D003D002D025
:1026C30001D0001200A5900498120AF0E4FFFE7DE9
:1026D300347C43900498E0F8A3E0F9A3E0FAA3E084
:1026E300FB1201967BDA7A0F7949784012029F90A8
:1026F3000498120AF0E4FFFE7D347C43900498E0D2
:10270300F8A3E0F9A3E0FAA3E0FB12033C60025054
:1027130018E4FFFEFDFC900498E0F8A3E0F9A3E0C1
:10272300FAA3E0FB12033C50057E007F04229004D1
:1027330085E0FCA3E0FDA3E0FEA3E0FFA804A90558
:10274300AA06FB120196C004C005C006C007900488
:1027530081E0FCA3E0FDA3E0FEA3E0FFA804A9053C
:10276300AA06FB120196D003D002D001D0001200BA
:10277300A5C004C005C006C0079004A4E0FCA3E004
:10278300FDA3E0FEA3E0FFA804A905AA06FB12012E
:1027930096A804A905AA06AB07D007D006D005D092
:1027A300041200A1C004C005C006C0079004A8E03D
:1027B300FCA3E0FDA3E0FEA3E0FFA804A905AA068D
:1027C300FB120196A804A905AA06AB07D007D006F9
:1027D300D005D0041200A11203B5C004C005C00681
:1027E300C007E4FFFEFD7C409004A4E0F8A3E0F9F9
:1027F300A3E0FAA3E0FB1201969004A8E0F8A3E09B
:10280300F9A3E0FAA3E0FB120196A804A905AA061E
:10281300AB07D007D006D005D00412029F9004B0B6
:10282300120AF0E4FFFE7D807C3F9004B0E0F8A341
:10283300E0F9A3E0FAA3E0FB12033C6002501AE4C0
:10284300FFFE7D807CBF9004B0E0F8A3E0F9A3E035
:10285300FAA3E0FB12033C50057E007F052290049F
:10286300B0E0FCA3E0FDA3E0FEA3E0FF1265AB90A4
:102873000494120AF0E4FFFE7D347C43900494E058
:10288300F8A3E0F9A3E0FAA3E0FB1201967BDA7A5E
:102893000F7949784012029FA804A905AA06AB073D
:1028A300E4FFFE7D347C431200A1900494120AF0ED
:1028B300E4FFFE7D077C43900494E0F8A3E0F9A3D2
:1028C300E0FAA3E0FB12033C6002501AE4FFFE7D32
:1028D300077CC3900494E0F8A3E0F9A3E0FAA3E033
:1028E300FB12033C50057E007F0622900498E0F81B
:1028F300A3E0F9A3E0FAA3E0FB900489E0FCA3E0E2
:10290300FDA3E0FEA3E0FF1200A1900494E0F8A36E
:10291300E0F9A3E0FAA3E0FB1200A5900490120AE9
:10292300F0E4FFFE7DB47C42900490E0F8A3E0F96C
:10293300A3E0FAA3E0FB12033C6002501AE4FFFE9B
:102943007DB47CC2900490E0F8A3E0F9A3E0FAA37D
:10295300E0FB12033C50057E007F072290049CE0BD
:10296300FCA3E0FDA3E0FEA3E0FF90048DE0FBA346
:10297300E0FAA3E0F9900010120A94E4FFFE7DB49C
:102983007CC2900498E0F8A3E0F9A3E0FAA3E0FB8B
:102993001200A590048DE0FBA3E0FAA3E0F99000F8
:1029A30014120A94900494E0FCA3E0FDA3E0FEA3B8
:1029B300E0FF900018120A94900490E0FCA3E0FD5D
:1029C300A3E0FEA3E0FF90001C120A9490001012F3
:1029D3000A4AE4FBFA79FA7844120196E4FBFA799D
:1029E30087784312029FA804A905AA06AB077F00B4
:1029F3007E807DBB7C441200A112040490048DE010
:102A0300FBA3E0FAA3E0F9900040EE8FF01208EA8E
:102A1300900014120A4AE4FBFA79FA7844120196F8
:102A2300E4FBFA7987784312029F7B007A8079BBB3
:102A330078441200A512040490048DE0FBA3E0FA8D
:102A4300A3E0F9900042EE8FF01208EA900018120A
:102A53000A4AE4FBFA79FA7844120196E4FBFA791C
:102A630087784312029F7B007A8079BB78441200F7
:102A7300A512040490048DE0FBA3E0FAA3E0F9900F
:102A83000044EE8FF01208EA90001C120A4AE4FB9D
:102A9300FA79FA7844120196E4FBFA7987784312BB
:102AA300029FA804A905AA06AB077F007E807DBB11
:102AB3007C441200A112040490048DE0FBA3E0FA0D
:0F2AC300A3E0F9900046EE8FF01208EAE4FEFF60
:012AD20022E1
:10009E00020470E86480F8E933E83360110460F01C
:1000AE00ED33EC337009E8FCE9FDEAFEEBFF2204C8
:1000BE0060DED3EB9FEA9EE99DE8C2E78CF0C2F7C3
:1000CE0095F0400CE8CCF8E9CDF9EACEFAEBCFFB8F
:1000DE0012043B85D0F05804700320D5B3E80470A9
:1000EE00075002B2D502047A92D5EC0460F7E4CC44
:1000FE00C0E0C398F8603B94186008400DD0E0FB58
:10010E00020452E4FBFAC9FC8028E830E406E4C994
:10011E00FBE4CAFCE830E305E4C9CACBFCE85407AB
:10012E006010F8C3E913F9EA13FAEB13FBEC13FCB6
:10013E00D8F130F52FC3E49CFCEF9BFFEE9AFEED59
:10014E0099FDD0E0FBEF4E4D4C701222DB03020402
:10015E0077EC2CFCEF33FFEE33FEED33FDED30E7A5
:10016E00EB020452EF2BFFEE3AFEED39FDD0E0FB31
:10017E0050130BBB000302047AED13FDEE13FEEFDA
:08018E0013FFEC13FC02045204
:10019600EC4D6011E8497017ED33EC3304600DE463
:1001A600FCFFFEFD22E933E8330470F80204701206
:1001B600043B58046009E4CC248150062850090207
:1001C600047A284003020477C0E0EB4A7044B98001
:1001D60006D0E0FB020466EF4E701CBD8008EBFF04
:1001E600EAFEE9FD80EBE98DF0A4FEE5F002027F70
:1001F600E9CDF9EAFEEBFFEF89F0A4FCE5F0CE8944
:10020600F0A42EFFE435F0CD89F0A42DFEE435F000
:100216008067EF4E7005BD80D780C3EF8BF0A4AC2E
:10022600F0EE8BF0A42CFCE435F0F8EF8AF0A42C69
:10023600E5F038FCE433CB8DF0A42CFCE5F03BF87C
:10024600EE8AF0A42CFCE5F038F8E433CF89F0A46C
:100256002CFCE5F038CF3400CE89F0A42FFFE5F072
:100266003EFEE433C98DF0A42EFEE5F039CD8AF0CA
:10027600A42FFFE5F03EFEE43DFD33D0E0FB500742
:100286000BBB000F02047AEC2CFCEF33FFEE33FEBF
:06029600ED33FD020452ED
:10029C0002047AEC5D046005E859047003020470F2
:1002AC0012043B580460F6EC4860F2EC7004FDFE5E
:1002BC00FF22C860DB2481C85009C3986002500635
:1002CC000204779850CAF582E9294B4A7005AB8233
:1002DC0002046675F0007C1A7880C3EF9BEE9AEDF1
:1002EC0099400DC3EF9BFFEE9AFEED99FDE842F0AD
:1002FC00DC23ACF0D0E0FFD0E0FED0E0FDAB822000
:10030C00E7101BEB60BAEC2CFCEF33FFEE33FEED89
:10031C0033FD020452E803F830E705C0F075F00035
:10032C00EF2FFFEE33FEED33FD40B830E7C280AA6D
:10033C0074F8CC6480CCC86480C8F58204604FC368
:10034C00EB9FF5F0EA9E42F0E99D42F0E89C45F007
:10035C00603C501DE5825FFFE582D313CB5BCBF491
:10036C002B5582FB50280ABA002409B900200880BA
:10037C001DE5825BFBE582D313CF5FCFF4C3132F54
:10038C005582FF50090EBE00050DBD00010CC3EBDC
:10039C009FF5F0EA9E42F0E99D42F0E89C45F06042
:0903AC0007CC4820E701B3EC2264
:1003B500ED33EC33600A047003BD8004ECB2E7FC56
:0103C5002215
:1003C60075F020800E75F010800575F0087D007EB2
:1003D600007F003392D530D5031209E5EC33401087
:1003E600EF33FFEE33FEED33FDEC33FCD5F0ED22BB
:0E03F600E5F0247EA2D513CC92E7CDCEFF22F7
:10040400EDD2E7CD33EC3392D524814006E4FFFEF0
:10041400FDFC22FCE4CFCECDCC24E0501174FF804F
:10042400EDC3CC13CCCD13CDCE13CECF13CF0470EC
:07043400F030D5DE0209E5FE
:10324600E5222486F582E43404F583E00522229003
:103256000483300703900486E475F001120B4202E2
:10326600077A2000E97F2ED2008018EF540F2490B1
:10327600D43440D4FF30040BEF24BFB41A005003FB
:103286002461FFE523600215230526E52670020565
:103296002530070E900483E475F001120B42EF020D
:1032A60007C002691C7403D2078003E4C207F52233
:1032B600900483120B70E4F523F525F526E52360CB
:1032C600077F2012328980F57524FFC201C200C231
:1032D60002C203C205C206C208123255FF700D3083
:1032E60007057F0012329AAF26AE2522B4255FC2AB
:1032F600D5C204123255FF24D0B40A00501A75F014
:103306000A782330D50508B6FF0106C6A426F6209E
:10331600D5047002D20380D924CFB41A00EF50042A
:10332600C2E5D20402358CD20180C6D20080C0D25A
:103336000280BCD2D580BAD20580B47F20123289F1
:103346002002077401B5230040F1123246FF123203
:10335600890232C3D208D2068095123246FB123257
:1033660046FA123246F94A4B7006798A7A367BFF5C
:1033760020022EE523602A7E008E827583001207C6
:103386009360060EEE652470F0C2D5EBC0E0EAC08D
:10339600E0E9C0E0EE1235EDD0E0F9D0E0FAD0E099
:1033A600FB12077AFF60AAEBC0E0EAC0E0E9C0E0E2
:1033B600123289D0E02401F9D0E03400FAD0E0FBE3
:1033C600E5240460DCD524D98087D20280A2123598
:1033D600CF60F7E524700104120485A924600DE589
:1033E60024600914F524123677EF60F3EA30E70219
:1033F600F404C3995079EAF425240430E701E4047F
:10340600F524800D1235CF60C1EA05242524120467
:1034160085EA9004B2F030E701E4252404D52404BB
:10342600200501141235EDE4C0E01236779004B29F
:10343600E0601320E70714F0123271802204F0D006
:10344600E014C0E07F00123271E524600712326892
:103456001524800B300503123268D0E00232C3D047
:10346600E00480C41235CF609EE5240412048590E2
:1034760004B2EAF0E52420050260010424041235B2
:01348600ED58
:1034870074FF04C0E0123677123271E5242005027A
:103497006003123268D0E0B524E87F4512327B9092
:1034A70004B2E07F2B30E7047F2DF404C0E0123232
:1034B70089D0E075F00A84C0F0123272D0E012327F
:1034C700720232C3791080027908C206C2088008E6
:1034D700D2D5790A8004790AC2D5E524047002F5A9
:1034E70024E4FAFDFEFF123246FC7B08200113128A
:1034F7003246FD7B1030000A123246FE123246FF7A
:103507007B20EC3382D592D55013C3E43000069F5D
:10351700FFE49EFEE42001039DFDE49CFCE4CBF860
