:102ADC003C5053325F52454430313A2330303550FC
:102AEC00303630305432303030215E233030355077
:102AFC00445354213E003C5053325F5245443032D3
:102B0C003A2330303550323430305432303030217A
:102B1C005E2330303550445354213E003C505332E8
:102B2C005F52454430333A233030345030363030F5
:102B3C005432303030215E233030345044535421E1
:102B4C003E003C5053325F52454430343A233030CF
:102B5C003450323430305432303030215E23303007
:102B6C003450445354213E003C5053325F52454440
:102B7C0030353A23303032503234303054323030F9
:102B8C0030215E2330303250445354213E003C50AF
:102B9C0053325F52454430363A233030335032345E
:102BAC0030305432303030215E2330303350445387
:102BBC0054213E003C5053325F52454430373A2347
:102BCC0030303250303630305432303030215E2399
:102BDC0030303250445354213E003C5053325F52FB
:102BEC00454430383A23303033503036303054325C
:102BFC00303030215E2330303350445354213E006A
:102C0C003C5053325F52454430393A24444A5221A5
:102C1C003E003C5053325F52454431303A3E003C0A
:102C2C005053325F52454431313A3E003C5053329E
:102C3C005F52454431323A24444A52213E003C50C2
:102C4C0053325F52454431333A23303031503036B1
:102C5C0030305432303030215E23303031504453D8
:102C6C0054213E003C5053325F52454431343A2398
:102C7C0030303050303630305432303030215E23EA
:102C8C0030303050445354213E003C5053325F524C
:102C9C00454431353A2330303150323430305432AF
:102CAC00303030215E2330303150445354213E00BB
:102CBC003C5053325F52454431363A233030305019
:102CCC00323430305432303030215E23303030509A
:102CDC00445354213E003C5053325F47524E3031E6
:102CEC003A23303035503036303054323030302199
:102CFC005E2330303550445354213E003C50533207
:102D0C005F47524E30323A23303035503234303007
:102D1C005432303030215E233030355044535421FE
:102D2C003E003C5053325F47524E30333A233030E2
:102D3C003450303630305432303030215E23303025
:102D4C003450445354213E003C5053325F47524E52
:102D5C0030343A2330303450323430305432303016
:102D6C0030215E2330303450445354213E003C50CB
:102D7C0053325F47524E30353A2330303250323472
:102D8C0030305432303030215E23303032504453A6
:102D9C0054213E003C5053325F47524E30363A235A
:102DAC0030303350323430305432303030215E23B6
:102DBC0030303350445354213E003C5053325F4723
:102DCC00524E30373A233030325030363030543265
:102DDC00303030215E2330303250445354213E0089
:102DEC003C5053325F47524E30383A2330303350D8
:102DFC00303630305432303030215E233030335066
:102E0C00445354213E003C5053325F47524E3039AC
:102E1C003A24444A52213E003C5053325F47524EB2
:102E2C0031303A3E003C5053325F47524E31313ACA
:102E3C003E003C5053325F47524E31323A24444AA2
:102E4C0052213E003C5053325F47524E31333A23AD
:102E5C0030303150303630305432303030215E2307
:102E6C0030303150445354213E003C5053325F4774
:102E7C00524E31343A2330303050303630305432B8
:102E8C00303030215E2330303050445354213E00DA
:102E9C003C5053325F47524E31353A23303031502B
:102EAC00323430305432303030215E2330303150B7
:102EBC00445354213E003C5053325F47524E3136FE
:102ECC003A233030305032343030543230303021BC
:102EDC005E2330303050445354213E003230323077
:102EEC003036323800756172743120636865636BFB
:102EFC00206F6B2100756172743220636865636B9F
:102F0C00206F6B2100756172743420636865636B8C
:102F1C00206F6B2100233030305025303464543115
:102F2C00303030212330303150253034645431303E
:102F3C00303021233030325025303464543130302D
:102F4C00302123303033502530346454313030301C
:102F5C00212330303450253034645431303030211A
:102F6C00233030355025303464543130303021002A
:102F7C005E002400230024445354210023323535B1
:102F8C00504453542100244453543A002444535481
:102F9C003A256421002325303364504453542100D6
:102FAC00245253542100245054473A00245054477F
:102FBC003A25642D25642100244445473A002444D5
:102FCC0045473A25642D25642100244447533A0093
:102FDC00244447533A25642100244447543A00249E
:102FEC004447543A25642D25642C2564210024443F
:102FFC0043523A00244443523A25642C2564210060
:10300C0024444A5221002332353550313530305466
:10301C00323030302100244A58425F5357495443D0
:10302C004821002447455441210041414100244797
:10303C00455453210067726F75705F646F5F6F6BDF
:10304C003D300067726F75705F646F5F6F6B3D3101
:10305C000024474554494E432100696E6325642082
:10306C003D202566200D0A002444525321000D0AF0
:10307C0035314D43552D494150313557344B36314F
:10308C005334205665723A0024534D4F4445002466
:10309C00534D4F44452564210024534D4152545FF8
:1030AC0053544F502100404F4B2100244B4D533A69
:1030BC0000244B4D533A25642C25642C25642C2577
:1030CC0064210054727920746F2066696E642062EA
:1030DC0065737420706F733A0D0A0043616E277428
:1030EC002066696E64206265737420706F73212191
:1030FC00210040434C454152205052455F434D44C2
:10310C00204F4B21003C244447543A25642D256420
:10311C002C2564213E0040534554205052455F43BA
:10312C004D44204F4B2100450041000D0A00404505
:10313C0072617365202564204F4B210040446F471A
:10314C00726F7570202564204F4B210D0A0040478B
:10315C00726F7570446F6E65210041542B4241555E
:10316C0044380D0A0041542B5350504E414D455A92
:10317C004C2D35312D4254322E300D0A0041542B3A
:10318C004C454E414D455A4C2D35312D4254342E23
:10319C00300D0A0041542B4E414D455A4C2D3531C2
:1031AC002D4254322E300D0A007B23303036502500
:1031BC0030346454303030302123303037502530A7
:1031CC0034645430303030217D002325303364504A
:1031DC002530346454253034642128252E31662959
:1031EC000D0A00FF2ADCFF2B02FF2B28FF2B4EFFC2
:1031FC002B74FF2B9AFF2BC0FF2BE6FF2C0CFF2C04
:10320C001EFF2C2BFF2C38FF2C4AFF2C70FF2C960A
:10321C00FF2CBCFF2CE2FF2D08FF2D2EFF2D54FFA1
:10322C002D7AFF2DA0FF2DC6FF2DECFF2E12FF2EA9
:10323C0024FF2E31FF2E3EFF2E50FF2E76FF2E9CAC
:03324C00FF2EC290
:105964004403E0000000004103E4004403E50000B8
:1059740000004403E9000000004903ED00000000BA
:1059840000000000004403F6000000004403FA0095
:105994000000004403A2000000004403A600000B22
:1059A400B84403AA000000004203AE00004203B062
:1059B40000004203BA00004203C4FFFF4103CA00CF
:1059C4004403CB000000004103CF014103D0004455
:0659D40003D100000000F9
:105D7800126CAF126CB2126CBB126CB5126CB8120A
:105D88005E1E126CBE126ACB126AE2126CC4125FFB
:105D9800DC126CC1126C9912009A1257D2900457F7
:105DA800120AF042D2000090045B120AF042C400CA
:105DB8000090045F120AF043160000900463740117
:105DC800F0A37403F0A374FEF07F007E007DB47C22
:105DD80042125CD11267BE12641A126C169003F656
:105DE800E0F8A3E0F9A3E0FAA3E0FBC3EF9BFFEE22
:105DF8009AFEED99FDEC98FCE47BE87A03F9F8C388
:105E08001209E750CF1254F61244C512670E1267F2
:065E1800F512656B80BE6F
:036CAF0002651B60
:036CB200026A7FF4
:036CB500D2CB221D
:036CB800C2A6224F
:036CBB0002000EC6
:105E1E00126A631268FAEF64167003EE64EF6004A0
:105E2E00D2A680EF7B017A007970900472E4F0A321
:105E3E0074C1F07F007EF07DFF7CFF1260629000E7
:105E4E0070A3A3E0FEA3E064E87003742E6E601EE0
:105E5E007BFF7A2E79E8AF01AE027DFF7C009000C9
:105E6E0070120AE4900074120AF000000000900113
:105E7E0027E07004A3E064386030E49003D5F0901E
:105E8E0003D5E0FFC394085018EF25E02417F582E0
:105E9E00E43401F583E4F0A3F09003D5E004F08040
:105EAE00DE900127E4F0A37438F0900130E0D39433
:065EBE00014002E4F022A5
:036CBE00026C8BDA
:036CC100026AB3B1
:106ACB007F007EC27D017C001262A3126CC77BFF2C
:076ADB007A2E79F102674BEE
:106AE2007F007EC27D017C001263631200967BFFF1
:076AF2007A2F79010269C04F
:106AF9007F007EC27D017C00126242126CA37BFF83
:076B09007A2F791102689850
:036CC400026BB1AF
:1057D200D2A6C2CB7FC87E00126A05C2A6D2CB7FF8
:1057E200C87E00126A05D2A6C2CB7FC87E00126AAA
:1057F20005C2A6D2CB7FC87E00126A05D2A6C2CB52
:105802007FC87E00126A05C2A6D2CB7FC87E001274
:105812006A05900116E06438600302589D78317C75
:10582200017D017B017A007978120C5F900078E0AB
:10583200B424097B017A0079780217AC9003D574FD
:1058420010F07B017A017931126B259003D5E0C308
:105852009FEE6480F8748098503EE0FF2431F58218
:10586200E43401F5837430F074322FF582E43401AC
:10587200F5837430F074332FF582E43401F58374C8
:1058820030F074342FF582E43401F5837430F090F3
:0C58920003D5E0240FF080AA120D3C2288
:105FDC00E49003D5F09003D5E0FFC394085076EF1E
:105FEC0025E02417F582E43401F583E0FEA3E024D8
:105FFC00DCFDEE3405FC1203BF9003D5E0FB75F01D
:10600C000EA42400F582E43400F583120AE4EB7547
:10601C00F00EA42400F582E43400F583E0FCA3E048
:10602C00FDA3E0FEA3E0FFEB75F00EA42404F582C3
:10603C00E43400F583120AE4EB75F00EA42408F5A1
:10604C0082E43400F583120AF0000000009003D5BE
:06605C00E004F080802248
:066C990075B810D2AF2215
:1067BE00126C169003A2E0F8A3E0F9A3E0FAA3E0AE
:1067CE00FBC3EF9BFFEE9AFEED99FDEC98FCE47B8C
:1067DE00F47A01F9F8D31209E7500B126C169003F4
:0667EE00A2120AE4B2CB86
:0167F4002282
:10641A00900335E0604F900336E0B401051217A6E9
:10642A00802B900336E0FF64026004EFB403051288
:10643A000D3C8019900336E0B404127B017A01798D
:10644A0031123FBB126C169003F6120AE47E027FE9
:10645A00047D007B017A017931120C7CE4900336C9
:06646A00F0900335F02262
:10656B009003E4E064016032126C169003E0E0F8F3
:10657B00A3E0F9A3E0FAA3E0FBC3EF9BFFEE9AFEC7
:10658B00ED99FDEC98FC9003A6E0F8A3E0F9A3E0ED
:10659B00FAA3E0FBC31209E75011E49003E4F012F5
:0B65AB006C169003E0120AE412699BDA
:0165B60022C2
:10670E00126C169003AAE0F8A3E0F9A3E0FAA3E056
:10671E00FBC3EF9BFFEE9AFEED99FDEC98FCE47B3C
:10672E0032FAF9F8D31209E75012126C169003AA36
:0C673E00120AE47B017A0379ED125A2163
:01674A00222C
:106B3A00D3EF9400EE64809480400122C3E49FFF67
:046B4A00E49EFE22A5
:103D5E009003EEE064736003023FBA9003F5E02433
:103D6E0081FFE434FFFEEF7803C333CE33CED8F9B0
:103D7E00FF9003B8EEF0A3EFF09003F4E02481FF80
:103D8E00E434FFFEEF7803C333CE33CED8F9FF9081
:103D9E0003B4EEF0FCA3EFF0FD9003F3E02481FFFB
:103DAE00E434FFFEEF7803C333CE33CED8F9FF9061
:103DBE0003B6EEF0A3EFF09003AEE0FEA3E0FFC378
:103DCE00ED9FFFEC9EFE126B3AD3EF9410EE6480E3
:103DDE00948050269003B2E0FEA3E0FFC39003B997
:103DEE00E09FFF9003B8E09EFE126B3AD3EF941063
:103DFE00EE648094805003023F359003B4E0FEA33E
:103E0E00E0FF126B3AC3EF941EEE6480948050076D
:103E1E00E49003B4F0A3F090048674FFF0A3742F23
:103E2E00F0A37421F09003B4E0FCA3E0FDEC1203C8
:103E3E00BF7B9A7A997919783F120196A804A90541
:103E4E00AA06AB077F007E807DBB7C441200A112C8
:103E5E0003F8900489EEF0A3EFF09003B8E0FCA312
:103E6E00E0FDEC1203BF7B9A7A997919783F120123
:103E7E0096A804A905AA06AB077F007E807DBB7CB1
:103E8E00441200A11203F890048BEEF0A3EFF09011
:103E9E0003B8E0FCA3E0FDEC1203BF7B9A7A99799C
:103EAE0019783F1201967B007A8079BB7844120014
:103EBE00A51203F890048DEEF0A3EFF0A3EEF0A39D
:103ECE00EFF09003B8E0FCA3E0FDEC1203BF7B9A89
:103EDE007A997919783F120196A804A905AA06AB1A
:103EEE00077F007E807DBB7C441200A11203F890F8
:103EFE000491EEF0A3EFF0A3EEF0A3EFF07B017AC6
:103F0E000179311232B4120D3C9003B4E0FFA3E0FC
:103F1E009003AECFF0A3EFF09003B8E0FFA3E090D4
:103F2E0003B2CFF0A3EFF09003B0E0FEA3E0FFC327
:103F3E009003B7E09FFF9003B6E09EFE126B3AD35C
:103F4E00EF9410EE6480948040629003F2E024813E
:103F5E00FFE434FFFEEF7802C333CE33CED8F9FD43
:103F6E00AC069003F3E02481FFE434FFFEEF780209
:103F7E00C333CE33CED8F9FBAA06C39DFEEA9C907E
:103F8E0003B4F0A3CEF0EB2DFFEA3CA3F0FCA3EFBD
:103F9E00F0FD9003B4E0FEA3E0FF1266D09003B6EE
:0C3FAE00E0FFA3E09003B0CFF0A3EFF021
:013FBA0022E4
:1067F5009003F0E0FF9003BAE0B5070C9003F1E0D9
:10680500FF9003BBE06F601E7B017A0379F0900374
:10681500EEE0FD123A2C9003F0E09003BAF09003FD
:06682500F1E09003BBF05E
:01682B00224A
:104A63009003EEE064736003024BA09003F5E0FF54
:104A7300C3747F9FFFE49400FE126B4EC3EF940553
:104A8300EE6480948050069003F5747FF09003F3F6
:104A9300E0FFC3747F9FFFE49400FE126B4EC3EFED
:104AA3009405EE6480948050069003F3747FF09035
:104AB30003F5E0FFC3747F9FFFE49400FEEF7803E8
:104AC300C333CE33CED8F9FF9003BCEEF0FCA3EF93
:104AD300F0FD9003F3E0FFC3747F9FFFE49400FEB7
:104AE300EF7803C333CE33CED8F9FF9003BEEEF095
:104AF300A3EFF0D3ED94E8EC648094834005900336
:104B0300BC8028C39003BDE094189003BCE064808C
:104B1300947C5002802C9003BEE0FEA3E0FFD3946C
:104B2300E8EE64809483400C9003BE7403F0A37496
:104B3300E8F08015C3EF9418EE6480947C500A90DB
:104B430003BE74FCF0A37418F09003C0E0FCA3E070
:104B5300FD9003BCE0FEA3E0FFB50518EEB5041419
:104B63009003C2E0FCA3E0FD9003BEE06C7003A3DE
:104B7300E06D60299003BEE0FCA3E0FD1266D090D7
:104B830003BCE0FFA3E09003C0CFF0A3EFF09003DA
:0D4B9300BEE0FFA3E09003C2CFF0A3EFF05F
:014BA00022F2
:053A2C00900453EDF0D1
:103A3100E4900455F0900001120787FD7C00120705
:103A41006EFEE42DFFEC3EFE9003C6F0A3EFF09076
:103A510003C4E0FCA3E0FD6F7002EC6E7003023D55
:103A61005DA3E0FEA3E0FFA3EEF0A3EFF0EE5CFEAA
:103A7100EF5DFF9003C6EEF0A3EFF0E4900454F085
:103A8100900454E0FFC394104003023D4374017E4F
:103A910000A807088005C333CE33CED8F9FF9003C1
:103AA100C6E05EFCA3E05F4C6003023D3A9003C4B4
:103AB100E05EFEA3E05F4E7003023BE07E027F0406
:103AC1007D007B017A017931120C7C900453E06412
:103AD10073702EA3E075F003A424EFF582E4343172
:103AE100F583E493FB740193FA740293F9126B2545
:103AF100900454E075F003A424EFF582E43431809E
:103B010037900453E064416003023D3AA3E075F04D
:103B110003A4241FF582E43432F583E493FB74019A
:103B210093FA740293F9126B25900454E075F00333
:103B3100A4241FF582E43432F583E493FB740193EA
:103B4100FA740293F978317C017D011207489004DF
:103B51006A74FFF0A3742FF0A3747CF07B017A01E7
:103B610079311253DD900455EFF0600CE02430F50B
:103B710082E43401F583E4F090046A74FFF0A374E5
:103B81002FF0A3747EF07B017A0179311253DDEFBE
:103B91004E601478387C037D017B017A01793C12F7
:103BA1000C5F121797802D90046A74FFF0A3742F95
:103BB100F0A37480F07B017A0179311253DDEF4E6D
:103BC100601278387C037D017B017A01793C120C0B
:103BD1005F120D2D74FF9003C4F0A3F0023D3A7EF5
:103BE100027F047D007B017A017931120C7C900403
:103BF10053E06473702EA3E075F003A424EFF58203
:103C0100E43431F583E493FB740193FA740293F97C
:103C1100126B25900454E075F003A424EFF582E4BF
:103C210034318037900453E064416003023D3AA38C
:103C3100E075F003A4241FF582E43432F583E493A4
:103C4100FB740193FA740293F9126B25900454E00A
:103C510075F003A4241FF582E43432F583E493FB69
:103C6100740193FA740293F978317C017D01120792
:103C71004890046A74FFF0A3742FF0A3747CF07B66
:103C8100017A0179311253DD900455EFF07003028E
:103C91003D3AE07E002431F9EE3401FA7B019004D3
:103CA1006A74FFF0A3742FF0A3747EF01253DDEF5A
:103CB1004E6032900455E07E002431F9EE3401FA71
:103CC1007B0178387C037D01120C5F7B017A0379DB
:103CD10038126B2574372FF58274033EF583E4F0B7
:103CE1001217978054900455E07E002431F9EE3488
:103CF10001FA7B0190046A74FFF0A3742FF0A3749E
:103D010080F01253DDEF4E6030900455E07E0024C8
:103D110031F9EE3401FA7B0178387C037D01120C14
:103D21005F7B017A037938126B2574372FF5827422
:103D3100033EF583E4F0120D2D900454E004F002EB
:103D41003A819003C8E0FFA3E09003C4CFF0A3EF52
:0C3D5100F0D2A67F327E00126A05C2A6E6
:013D5D002243
:0100220022BB
:1017970078317C017D017B017A037938120C5F7BFC
:0517A700017A01793117
:0B17AC00900456EBF0A3EAF0A3E9F074
:1017B70012674B90046A74FFF0A3742FF0A374822E
:1017C700F0900456E0FBA3E0FAA3E0F91253DD9092
:1017D7000459EEF0A3EFF04E700302187D90039FBB
:1017E7007401F0E490045BF0A3F090045BE0FAA3CB
:1017F700E0FBC39408EA9400506490000875F00E6B
:10180700EB120B21EA75F00EA42583F583120AF07B
:101817000000000090000475F00EEB120B21EA7532
:10182700F00EA42583F583E0FCA3E0FDA3E0FEA36F
:10183700E0FF90045BE0FAA3E090000075F00E1261
:101847000B21EA75F00EA42583F583120AE49004B0
:101857005CE004F0709490045BE004F0808C7BFF04
:101867007A2F798812682CE4FDFCFFFE1266D0906F
:10187700039E74FFF02290046A74FFF0A3742FF0A4
:10188700A37492F0900456E0FBA3E0FAA3E0F912E8
:1018970053DD900459EEF0A3EFF04E700302196088
:1018A70090046A74FFF0A3742FF0A37498F0A374E4
:1018B70001F0A37404F0A3745DF0900456E0FBA359
:1018C700E0FAA3E0F912375BEF4E70030221B590FF
:1018D700045DE0FAA3E0FB90000875F00E120B21FF
:1018E700EA75F00EA42583F583120AF000000000C4
:1018F70090000475F00EEB120B21EA75F00EA4258B
:1019070083F583E0FCA3E0FDA3E0FEA3E0FF9004E2
:101917005DE0FAA3E090000075F00E120B21EA7566
:10192700F00EA42583F583120AE490048674FFF071
:10193700A3742FF0A374A1F090045DE0FFA3E090DF
:101947000489CFF0A3EFF07B017A0379381232B420
:101957007B017A03793802682C90046A74FFF0A33C
:10196700742FF0A374ACF0900456E0FBA3E0FAA345
:10197700E0F91253DD900459EEF0A3EFF04E600347
:1019870002001E90046A74FFF0A3742FF0A374B2D0
:10199700F0900456E0FBA3E0FAA3E0F91253DD90C0
:1019A7000459EEF0A3EFF04E604C90046A74FFF018
:1019B700A3742FF0A374B8F0A37401F0A37404F018
:1019C700A3745FF0A37401F0A37404F0A37461F02F
:1019D700900456E0FBA3E0FAA3E0F912375BEF4E61
:1019E70070030221B590045FE0FEA3E0FFA3E0FCD3
:1019F700A3E0FD025B7D90046A74FFF0A3742FF0EF
:101A0700A374C4F0900456E0FBA3E0FAA3E0F91234
:101A170053DD900459EEF0A3EFF04E604C90046A4A
:101A270074FFF0A3742FF0A374CAF0A37401F0A39A
:101A37007404F0A3745FF0A37401F0A37404F0A31B
:101A47007461F0900456E0FBA3E0FAA3E0F91237C3
:101A57005BEF4E70030221B590045FE0FEA3E0FF49
:101A6700A3E0FCA3E0FD02589E90046A74FFF0A374
:101A7700742FF0A374D6F0900456E0FBA3E0FAA30A
:101A8700E0F91253DD900459EEF0A3EFF04E6041F8
:101A970090046A74FFF0A3742FF0A374DCF0A374AE
:101AA70001F0A37404F0A3745FF0900456E0FBA365
:101AB700E0FAA3E0F912375BEF4E70030221B5900D
:101AC700045FE0FEA3E0FF12616790039F7401F0DB
:101AD7002290046A74FFF0A3742FF0A374E5F090CA
:101AE7000456E0FBA3E0FAA3E0F91253DD90045992
:101AF700EEF0A3EFF04E7003021B8690046A74FFAA
:101B0700F0A3742FF0A374EBF0A37401F0A3740394
:101B1700F0A374DAF0A37401F0A37403F0A374DCE8
:101B2700F0A37401F0A37403F0A374DEF0900456DD
:101B3700E0FBA3E0FAA3E0F912375BEF4E70030274
:101B470021B59003DCE0FCA3E0FD9003DAE0FEA3FF
:101B5700E0FF6D7002EE6C601D9003D6EEF0A3EF10
:101B6700F09003DEE0FDA3E09003D8CDF0A3EDF005
:101B7700E490039FF02290039F7401F00261679045
:101B8700046A74FFF0A3742FF0A374FAF09004565C
:101B9700E0FBA3E0FAA3E0F91253DD900459EEF05D
:101BA700A3EFF04E604C90046A74FFF0A37430F01A
:101BB700A37400F0A37401F0A37404F0A3745FF09E
:101BC700A37401F0A37404F0A37461F0900456E0C9
:101BD700FBA3E0FAA3E0F912375BEF4E7003022193
:101BE700B590045FE0FEA3E0FFA3E0FCA3E0FD02E5
:101BF700204D90046A74FFF0A37430F0A3740CF0C6
:101C0700900456E0FBA3E0FAA3E0F91253DD900439
:101C170059EEF0A3EFF04E7003021D2E7BFF7A30D2
:101C2700791212682CE490045BF0A3F090045CE056
:101C370025E0FF90045BE033FE74172FF5827401F3
:101C47003EF583E0FEA3E024DCFDEE3405FC120341
:101C5700BF90045BE0FAA3E0FB90000075F00E1262
:101C67000B21EA75F00EA42583F583120AE4900090
:101C77000C75F00EEB120B21EA75F00EA42583F517
:101C870083E0FCA3E0FDEC1203BFE4FBFA79A07844
:101C97004112029FC004C005C006C00790045BE064
:101CA700FEA3E0FF90000475F00E120B21EE75F015
:101CB7000EA42583F583E0F8A3E0F9A3E0FAA3E0F7
:101CC700FB90000075F00EEF120B21EE75F00EA4DD
:101CD7002583F583E0FCA3E0FDA3E0FEA3E0FF126C
:101CE70000A1D003D002D001D00012029F90045B64
:101CF700E0FAA3E090000875F00E120B21EA75F0E8
:101D07000EA42583F583120AE490045CE004F070C6
:101D17000690045BE004F090045BE07004A3E064C9
:101D2700086003021C332290046A74FFF0A3743026
:101D3700F0A37422F0900456E0FBA3E0FAA3E0F9C5
:101D47001253DD900459EEF0A3EFF04E7003021E1C
:101D57008A90039F7401F07BFF7A30791212682C06
:101D6700E490045BF0A3F090045BE0FAA3E0FBC30C
:101D77009408EA94004003021E6790000075F00E75
:101D8700EB120B21EA75F00EA42583F583120AF0F6
:101D970044BB800090000C75F00EEB120B21EA7526
:101DA700F00EA42583F5837407F0A374D0F0900494
:101DB7005BE0FEA3E090000C75F00E120B21EE75B0
:101DC700F00EA42583F583E0FCA3E0FDEC1203BF2E
:101DD700E4FBFA79A0784112029FC004C005C0064F
:101DE700C00790045BE0FEA3E0FF90000475F00ECF
:101DF700120B21EE75F00EA42583F583E0F8A3E01E
:101E0700F9A3E0FAA3E0FB90000075F00EEF120BC8
:101E170021EE75F00EA42583F583E0FCA3E0FDA376
:101E2700E0FEA3E0FF1200A1D003D002D001D00052
:101E370012029F90045BE0FAA3E090000875F00E91
:101E4700120B21EA75F00EA42583F583120AE4909C
:101E5700045CE004F0700690045BE004F0021D6E81
:101E67009003CAE060047F0180027F027E00126156
:101E7700679003CAE070047F0180027F009003CA65
:101E8700EFF02290046A74FFF0A37430F0A3742F6C
:101E9700F0900456E0FBA3E0FAA3E0F91253DD90BB
:101EA7000459EEF0A3EFF04E60097BFF7A307936E4
:101EB7000221B290046A74FFF0A37430F0A3743A5D
:101EC700F0900456E0FBA3E0FAA3E0F91253DD908B
:101ED7000459EEF0A3EFF04E601690039FE07BFFEE
:101EE70070077A3079410221B27A30794F0221B2F4
:101EF70090046A74FFF0A37430F0A3745DF090044B
:101F070056E0FBA3E0FAA3E0F91253DD900459EE83
:101F1700F0A3EFF04E6076E4A3F0A3F0900486748C
:101F2700FFF0A37430F0A37466F090045BE0FEA3A7
:101F3700E0FD900489EEF0A3EDF090000875F00E37
:101F4700120B21EE75F00EA42583F583E0FCA3E0C8
:101F5700FDA3E0FEA3E0FF90048B120AE47B017A65
:101F67000379381232B47B017A03793812674B90C0
:101F7700045CE004F0700690045BE004F0C3900496
:101F87005CE0940890045BE0940040902290046A1F
:101F970074FFF0A37430F0A37474F0900456E0FB60
:101FA700A3E0FAA3E0F91253DD900459EEF0A3EF92
:101FB700F04E60127BFF7A30797A12674B7BFF7A9B
:101FC7002E79E80221B290046A74FFF0A37430F00E
:101FD700A37494F0900456E0FBA3E0FAA3E0F9128F
:101FE70053DD900459EEF0A3EFF04E605C90046A65
:101FF70074FFF0A37430F0A3749BF0A37401F0A3F3
:102007007404F0A3745FF0900456E0FBA3E0FAA316
:10201700E0F912375BEF4E70030221B590045FE0E1
:10202700FEA3E0FFC3940AEE64809480400302217C
:10203700B590039EEFF07D647C007F017E00126304
:10204700C1E4FDFCFFFE0266D090046A74FFF0A3B2
:102057007430F0A374A5F0900456E0FBA3E0FAA354
:10206700E0F91253DD900459EEF0A3EFF04E602330
:1020770090039E74FFF07D647C007F017E001263F5
:10208700C17BFF7A2F7988120D427BFF7A3079B2B4
:102097000221B290046A74FFF0A37430F0A374B7FE
:1020A700F0900456E0FBA3E0FAA3E0F91253DD90A9
:1020B7000459EEF0A3EFF04E70030221B590046AC5
:1020C70074FFF0A37430F0A374BDF0A37401F0A300
:1020D7007404F0A3745FF0A37401F0A37404F0A375
:1020E7007461F0A37401F0A37404F0A37463F0A304
:1020F7007401F0A37404F0A37465F0900456E0FB38
:10210700A3E0FAA3E0F912375BEF4E70030221B5A3
:102117007BFF7A3079CF12674B90045FE0FCA3E036
:10212700FDEC1203BFC004C005C006C007900461E0
:10213700E0FCA3E0FDEC1203BF90046B120AE490ED
:102147000463E0FCA3E0FDEC1203BF90046F120AE6
:10215700E4900465E0FFA3E0900473CFF0A3EFF0F1
:10216700D007D006D005D00412419BEF4E6012D2A3
:10217700A67F327E00126A05C2A67F327E00026AFF
:1021870005D2A67F327E00126A05C2A67F327E0084
:10219700126A05D2A67F327E00126A05C2A67F3276
:0E21A7007E00126A057BFF7A3079E712674BE3
:0121B5002207
:0B3FBB00900453EBF0A3EAF0A3E9F040
:103FC600E4A3F0A3F0900453E0FBA3E0FAA3E0F926
:103FD600900001120787B4241A900002120787B4D2
:103FE6002111E4900116F012699B7BFF7A3079FE6D
:103FF600024197900453E0FBA3E0FAA3E0F9900096
:1040060001120787642460030240CE90046A74FF9D
:10401600F0A37431F0A37411F0A37401F0A3740338
:10402600F0A374DAF0A37401F0A37403F0A374DCB4
:10403600F0A37401F0A37403F0A374DEF012375BEF
:10404600EF4E700302419A9003DCE0FEA3E0FF907E
:1040560003DAE0B5061EA3E0B507197B017A0079FD
:10406600787F00FEE4FCFD90047204F0A3E4F012F5
:10407600606280427E007F9F7D007B017A007978B6
:10408600120C7C900453E0FBA3E0FAA3E02401F9B0
:10409600E43AFA78787C007D01120C5F900453E0D4
:1040A600FBA3E0FAA3E0F9126B2574762FF5827470
:1040B600003EF583E4F09001167438F012699B7B9C
:1040C600FF7A317922024197900453E0FBA3E0FA8C
:1040D600A3E0F9125EC4900456EEF0A3EFF0F4707C
:1040E60002EEF46015900453E0FBA3E0FAA3E0F9B6
:1040F600900006120787642360097BFF7A317933C3
:10410600024197900457E07B00FA7C107D007F0007
:10411600FE1207FAED4C70127C10FDFFAE0212077C
:10412600FAEE3395E0FDFC1261DA900453E0FBA34E
:10413600E0FAA3E0F990045C747BF07D3C126A9A85
:10414600900453E0FBA3E0FAA3E0F990045C747DCD
:10415600F07D3E126A9A900453E0FBA3E0FAA3E0D6
:10416600F9126B25EF2401FFE43E90045FF0A3EF04
:10417600F0900453E0FBA3E0FAA3E0F9900457E0C3
:104186007F00FE3395E0FDFC1256027BFF7A317903
:044196003512674B2C
:01419A002202
:0B5EC400900458EBF0A3EAF0A3E9F013
:105ECF00E4A3F0A3F0900458E0FBA3E0FAA3E0F9F9
:105EDF0012076E60676447705790045980419004B1
:105EEF0058E0FBA3E0FAA3E0F912076EFF6423600A
:105EFF0036EF64246031EFFB7A0090045BE0FEA381
:105F0F00E0FF7C007D0A1207E8EF2BFFEA3ECF246B
:105F1F00D0CF34FF90045BF0A3EFF0900459E475F9
:105F2F00F00112083080B790045BE0FEA3E0FF227F
:105F3F00900459E475F00112083080897EFF7FFFCD
:015F4F00222F
:105B7D00900467EEF0A3EFF0A3ECF0A3EDF090042A
:105B8D0069E0FEA3E0FFD3900468E09FEE6480F827
:105B9D00900467E0648098401790046E7401F0A340
:105BAD007404F0A37469F07B017A04796712664C72
:105BBD00900469E0FEA3E0FFD3900468E09FEE64DB
:105BCD0080F8900467E0648098504F7E027F047DDA
:105BDD00007B017A017931120C7C7B017A017931DC
:105BED00900468E07F00FE3395E0FDFC9004727434
:105BFD0001F0A3E4F01260627B017A017931126742
:105C0D004B7BFF7A31793712674B900468E004F0D3
:0B5C1D00709E900467E004F080962267
:0B664C0090046BEBF0A3EAF0A3E9F070
:1066570012085CFFAEF090046EE0FBA3E0FAA3E043
:10666700F912085CFD90046BE0FBA3E0FAA3E0F9E4
:10667700E5F08DF01208BF90046EE0FBA3E0FAA3EB
:08668700E0F9EE8FF00208BFFC
:10589E00900467EEF0A3EFF0A3ECF0A3EDF090040C
:1058AE0069E0FEA3E0FFD3900468E09FEE6480F809
:1058BE00900467E0648098401790046E7401F0A322
:1058CE007404F0A37469F07B017A04796712664C54
:1058DE00C390046AE0947F900469E06480948040F1
:1058EE0006E4F0A3747FF0900469E0FCA3E0FD9061
:1058FE000467E0FEA3E0FFD39DEC6480F8EE6480C5
:10590E00985048EE3395E0FDFC1261DA90048674EF
:10591E00FFF0A37431F0A3743AF0900467E0FFA394
:10592E00E0900489CFF0A3EFF07B017A037938126F
:10593E0032B47B017A03793812674B900468E00425
:10594E00F070A4900467E004F0809C9003E9120AC2
:06595E00F0000000002231
:0B52C000900469EBF0A3EAF0A3E9F012
:1052CB00E4A3F0A3F0A3F0A3F0FFFE900469E0FBCE
:1052DB00A3E0FAA3E0F9A3E0FCA3E0F5828C831230
:1052EB00078770030253D4645460030253C09004C5
:1052FB006DE02402FF90046CE034008F82F5831282
:10530B00078724D0FFE434FFFE7C007D641207E89E
:10531B00C006C00790046DE02401FF90046CE034DC
:10532B00008F82F58312078724D0FFE434FFFE7CC5
:10533B00037DE81207E8D0E02FFDD0E03EFCC0046F
:10534B00C00590046DE02403FF90046CE034008FE3
:10535B0082F58312078724D0FFE434FFFE7C007DA7
:10536B000A1207E8D0E02FFFD0E03EFE90046DE07C
:10537B002404FD90046CE034008D82F583120787C2
:10538B0024D0FDEC34FFCD2FFFED3EFEC390046F18
:10539B00E09FEE6480F890046EE06480985005EE18
:1053AB00F0A3EFF090046DE02404F090046CE03473
:1053BB0000F00252D690046DE004F060030252D666
:1053CB0090046CE004F00252D690046EE0FEA3E071
:0153DB00FFD2
:0153DC0022AE
:10616700900467EEF0A3EFF07E027F047D007B01D1
:106177007A017931120C7C7B017A017931900468BC
:10618700E07F00FE3395E0FDFC9004727401F0A3FC
:10619700E4F01260627B017A0179311252C0EE336A
:1061A70095E0FDFC9003FA120AE4120D3C90048678
:1061B70074FFF0A37431F0A37448F0900467E0FF14
:1061C700A3E0900489CFF0A3EFF07B017A0379383D
:0361D7000232B4DD
:1054F60090039FE060030255F7126C169003CBE011
:10550600F8A3E0F9A3E0FAA3E0FBC3EF9BFFEE9A52
:10551600FEED99FDEC98FC9003FAE0F8A3E0F9A300
:10552600E0FAA3E0FBC31209E74003025601126C3E
:10553600169003CB120AE49003DEE07002A3E0604B
:10554600189003D8E07002A3E0700E90039F04F059
:105556007BFF7A31795A02674B9003D6E0FEA3E0CF
:10556600FF1261679003DCE0FEA3E0FF9003DAE040
:10557600FCA3E0FDC39FEC9E502F9003D6E0B5063A
:1055860019A3E0B507149003D6ECF0A3EDF0900351
:10559600DEE07002A3E06063803C9003D7E004F095
:1055A60070599003D6E004F0229003DCE0FEA3E0FD
:1055B600FF9003D6E0B5062AA3E0B507259003DAE7
:1055C600E0FFA3E09003D6CFF0A3EFF09003DEE078
:1055D6007002A3E060259003D9E024FFF09003D881
:1055E600800A9003D7E024FFF09003D6E034FFF062
:0B55F600229003FA120AF00000000AE5
:015601002286
:1060E7009004F8120AF000000000E49004F6F0A310
:1060F700F09004F6E0FEA3E0FFC39408EE648094FA
:1061070080505AA3E0F8A3E0F9A3E0FAA3E0FB90DC
:10611700000875F00EEF120B21EE75F00EA4258323
:10612700F583E0FCA3E0FDA3E0FEA3E0FF1200A5DA
:106137009004F8120AE49004F8E0FCA3E0FDA3E061
:10614700FEA3E0FFEC4D4E4F60037F01229004F762
:0F615700E004F0709C9004F6E004F080947F0068
:016166002216
:100D2D0078317C017D017B017A037938120C5F7B70
:050D3D00017A0179318B
:0B0D4200900469EBF0A3EAF0A3E9F0D5
:100D4D00E4900470F0A3F0900474F0A3F012076E19
:100D5D006423600302101E900469E0FBA3E0FAA374
:100D6D00E0F99000041207876450600302101E9092
:100D7D0000051207876453600302101E90000612CF
:100D8D0007876443600302101E90000712078764F3
:100D9D004B600302101E90000C1207876421600344
:100DAD0002101E90000212078724D0FFE434FFFECC
:100DBD007C007D0A1207E8C006C0079000011207EB
:100DCD008724D0FFE434FFFE7D641207E8D0E02FC6
:100DDD00FFD0E03EFE90000312078724D0FDEC34D7
:100DED00FFCD2FFFED3E90046CF0A3EFF090000AC5
:100DFD0012078724D0FFE434FFFE7D0A1207E8C0F6
:100E0D0006C00790000912078724D0FFE434FFFEC7
:100E1D007D641207E8D0E02FFFD0E03EFE90000B7E
:100E2D0012078724D0FDEC34FFCD2FFFED3EFE9051
:100E3D000476F0A3EFF0C3940CEE6480947E50031F
:100E4D00021796900476E0FEA3E0FFD394F4EE64CF
:100E5D008094814003021796C390046DE09408902E
:100E6D00046CE09400400302179690000812078767
:100E7D00FD642B6011EDB42D0DC3E49FFFE49E9036
:100E8D000476F0A3EFF090046DE025E0FF90046C84
:100E9D00E033FE74172FF58274013EF583E0FCA359
:100EAD00E0FDEC1203BFA804A905AA06AB07900448
:100EBD006CE0FEA3E090000475F00E120B21EE75B0
:100ECD00F00EA42583F583E0FCA3E0FDA3E0FEA3D3
:100EDD00E0FF1200A1C004C005C006C00790047653
:100EED00E0FCA3E0FDEC1203BFD003D002D001D093
:100EFD00001200A590047C120AE4900476E0FCA395
:100F0D00E0FD90046DE025E0FF90046CE033FE748D
:100F1D00172FF58274013EF583ECF0A3EDF07F0001
:100F2D007E107D1C7C4590047CE0F8A3E0F9A3E0E5
:100F3D00FAA3E0FB12033C600E400C90047C120AF5
:100F4D00F0451C10008024E4FFFE7DFA7C439004E4
:100F5D007CE0F8A3E0F9A3E0FAA3E0FB12033C5018
:100F6D000A90047C120AF043FA000090047CE0FC25
:100F7D00A3E0FDA3E0FEA3E0FF90046CE0FAA3E084
:100F8D00FB90000075F00E120B21EA75F00EA425F2
:100F9D0083F583120AE490000475F00EEB120B2119
:100FAD00EA75F00EA42583F583E0F8A3E0F9A3E03C
:100FBD00FAA3E0FB90046CE0FEA3E090000075F056
:100FCD000E120B21EE75F00EA42583F583E0FCA324
:100FDD00E0FDA3E0FEA3E0FF1200A1E4FBFA79A07F
:100FED00784012029F90046CE0FAA3E0900008751F
:100FFD00F00E120B21EA75F00EA42583F583120A6B
:10100D00E4126C169003E0120AE49003E47401F00C
:10101D0022900469E0FBA3E0FAA3E0F912076E64E5
:10102D0023600302112590000412078764506003AA
:10103D0002112590000512078764446003021125F3
:10104D009000061207876453600302112590000774
:10105D001207876454600302112590000812078758
:10106D006421600302112590000212078724D0FF2E
:10107D00E434FFFE7C007D0A1207E8C006C007902D
:10108D00000112078724D0FFE434FFFE7D641207B0
:10109D00E8D0E02FFFD0E03EFE900003120787243A
:1010AD00D0FDEC34FFCD2FFFED3EFE90046CF0A390
:1010BD00EFF0C39408EE9400400302179690046C71
:1010CD00E0FAA3E0FB90000875F00E120B21EA7513
:1010DD00F00EA42583F583120AF0000000009000A5
:1010ED000475F00EEB120B21EA75F00EA42583F5B5
:1010FD0083E0FCA3E0FDA3E0FEA3E0FF90046CE021
:10110D00FAA3E090000075F00E120B21EA75F00EB7
:10111D00A42583F583020AE49004740212F6900468
:10112D0069E0FBA3E0FAA3E0F9900470E0FEA3E010
:10113D00F5828E831207877003021796642360036E
:10114D00021206900474E07004A3E06401600302CF
:10115D001206900470E0FFA3E0A3CFF0A3EFF0E43C
:10116D0090046CF0A3F0900471E004F0700690040C
:10117D0070E004F0900469E0FBA3E0FAA3E0F990BD
:10118D000470E0FEA3E0F5828E83120787FF6039BD
:10119D0064506035EFFB7A0090046CE0FEA3E0FF35
:1011AD007C007D0A1207E8EF2BFFEA3ECF24D0CF5B
:1011BD0034FF90046CF0A3EFF0900471E004F07034
:1011CD00B3900470E004F080AB900472E0FEA3E0F5
:1011DD00FFC3900471E09FFF900470E09ECF24FF49
:1011ED00CF34FFFEEF64034E90047460030212F6D9
:1011FD00E4F0A37402F002112B900469E0FBA3E06C
:10120D00FAA3E0F9900470E0FEA3E0FFF5828E836F
:10121D0012078764506003021307900474E0700492
:10122D00A3E064026003021307900472EEF0A3EFD3
:10123D00F0900478120AF000000000900471E004B0
:10124D00F07006900470E004F0900469E0FBA3E0F8
:10125D00FAA3E0F9900470E0FEA3E0F5828E83120C
:10126D000787FF60606454605C900470A3E0F582B2
:10127D008E83120787FCE41203C4C004C005C006A8
:10128D00C007E4FFFE7D207C41900478E0F8A3E0E8
:10129D00F9A3E0FAA3E0FB120196D003D002D0012E
:1012AD00D0001200A5E4FBFA794078C21200A59097
:1012BD000478120AE4900471E004F0708C900470CC
:1012CD00E004F08084900472E0FEA3E0FFC390047C
:1012DD0071E09FFF900470E09ECF24FFCF34FFFE9E
:1012ED00EF64044E9004746008E4F0A304F002115E
:1012FD002BE4F0A37403F002112B900469E0FBA31F
:10130D00E0FAA3E0F9900470E0FEA3E0FFF5828E11
:10131D008312078764546003021785900474E0708C
:10132D0004A3E064036003021785900472EEF0A33A
:10133D00EFF0E490046EF0A3F0900471E004F0700F
:10134D0006900470E004F0900469E0FBA3E0FAA3BA
:10135D00E0F9900470E0FEA3E0F5828E831207871A
:10136D00FF603964216035EFFB7A0090046EE0FE7A
:10137D00A3E0FF7C007D0A1207E8EF2BFFEA3ECFCA
:10138D0024D0CF34FF90046EF0A3EFF0900471E001
:10139D0004F070B3900470E004F080ABC390046F60
:1013AD00E094F490046EE09401500CA3E0242CF032
:1013BD0090046EE03401F0900474E4F0A304F09016
:1013CD000472E0FEA3E0FFC3900471E09FFF900460
:1013DD0070E09ECF24FFCF34FFFEEF64044E600318
:1013ED0002112BC390046DE0940890046CE09400FE
:1013FD00400302163F7F007E407D1C7C45900478A3
:10140D00E0F8A3E0F9A3E0FAA3E0FB12033C6005CA
:10141D00400302163FE4FFFE7DFA7C43900478E022
:10142D00F8A3E0F9A3E0FAA3E0FB12033C5003029A
:10143D00163FD390046FE0941090046EE094274013
:10144D000302163F900478E0F8A3E0F9A3E0FAA3B5
:10145D00E0FBC000C001C002C00390046DE025E0B8
:10146D00FF90046CE033FE74172FF58274013EF586
:10147D0083E0FCA3E0FDEC1203BFD003D002D0014A
:10148D00D0001200A5900478120AE47F007E107D32
:10149D001C7C45900478E0F8A3E0F9A3E0FAA3E002
:1014AD00FB12033C600C400A900478120AF0451CB4
:1014BD001000E4FFFE7DFA7C43900478E0F8A3E091
:1014CD00F9A3E0FAA3E0FB12033C500A9004781252
:1014DD000AF043FA0000C390046FE0941490046E78
:1014ED00E09400900478E0FC5067A3E0FDA3E0FEDB
:1014FD00A3E0FF90046CE0FAA3E0FB90000075F010
:10150D000E120B21EA75F00EA42583F583120AE461
:10151D00900478E0FCA3E0FDA3E0FEA3E0FF9000C3
:10152D000475F00EEB120B21EA75F00EA42583F570
:10153D0083120AE490000875F00EEB120B21EA7588
:10154D00F00EA42583F583120AF0000000000216A8
:10155D003FA3E0FDA3E0FEA3E0FF90046CE0FAA33F
:10156D00E0FB90000075F00E120B21EA75F00EA451
:10157D002583F583120AE490046EE0FEA3E0FF904C
:10158D00000C75F00EEB120B21EA75F00EA42583FD
:10159D00F583EEF0A3EFF090000C75F00EEB120B4F
:1015AD0021EA75F00EA42583F583E0FCA3E0FDECA4
:1015BD001203BFE4FBFA79A0784112029FC004C068
:1015CD0005C006C00790046CE0FEA3E0FF90000488
:1015DD0075F00E120B21EE75F00EA42583F583E048
:1015ED00F8A3E0F9A3E0FAA3E0FB90000075F00E7C
:1015FD00EF120B21EE75F00EA42583F583E0FCA30D
:10160D00E0FDA3E0FEA3E0FF1200A1D003D002D0C5
:10161D0001D00012029F90046CE0FAA3E090000844
:10162D0075F00E120B21EA75F00EA42583F58312C9
:10163D000AE490046CE07003A3E0F4600302112B44
:10164D0090046CF0A3F0C390046DE0940890046CCA
:10165D00E09400400302112BA3E025E0FF90046C01
:10166D00E033FE74172FF58274013EF583E0FEA37F
:10167D00E024DCFDEE3405FC1203BF900478120A61
:10168D00E4900478E0FCA3E0FDA3E0FEA3E0FF906E
:10169D00046CE0FAA3E0FB90000075F00E120B2134
:1016AD00EA75F00EA42583F583120AE490046EE02A
:1016BD00FEA3E0FF90000C75F00EEB120B21EA7506
:1016CD00F00EA42583F583EEF0A3EFF090000C75DA
:1016DD00F00EEB120B21EA75F00EA42583F583E0D5
:1016ED00FCA3E0FDEC1203BFE4FBFA79A0784112F4
:1016FD00029FC004C005C006C00790046CE0FEA3A5
:10170D00E0FF90000475F00E120B21EE75F00EA4A3
:10171D002583F583E0F8A3E0F9A3E0FAA3E0FB90BD
:10172D00000075F00EEF120B21EE75F00EA425835F
:10173D00F583E0FCA3E0FDA3E0FEA3E0FF1200A112
:10174D00D003D002D001D00012029F90046CE0FAB9
:10175D00A3E090000875F00E120B21EA75F00EA4AF
:10176D002583F583120AE490046DE004F070069071
:10177D00046CE004F0021653900471E004F070065E
:09178D00900470E004F002112B3D
:011796002230
:106A9A0012076E6013B5050790045CE01207B47420
:096AAA000129F9E43AFA80E8221E
:10699B007FFF7EFF7DFF7CFF1261DA7B017A00793E
:1069AB007090045FE4F0A374C1F07F007EF07DFF74
:0569BB007CFF02560202
:1044C5009003CFE07003024648126C169003D1E0CA
:1044D500F8A3E0F9A3E0FAA3E0FBC3EF9BFFEE9A94
:1044E500FEED99FDEC98FCE47BF47A01F9F8C31232
:1044F50009E750269003D0E07020126C169003D186
:10450500120AE47F807E257D007C00126242126CD7
:10451500A37BFF7A3179660245A9126C169003D107
:10452500E0F8A3E0F9A3E0FAA3E0FBC3EF9BFFEEFD
:104535009AFEED99FDEC98FCE47BF47A01F9F8C359
:104545001209E7501E9003D0E0B40117126C1690C3
:1045550003D1120AE47F007EC27D017C0012624213
:104565000245F2126C169003D1E0F8A3E0F9A3E03E
:10457500FAA3E0FBC3EF9BFFEE9AFEED99FDEC98E5
:10458500FCE47BF47A01F9F8C31209E7501B9003A8
:10459500D0E0B40214126C169003D1120AE47BFF2A
:1045A5007A3179711268988044126C169003D1E0C3
:1045B500F8A3E0F9A3E0FAA3E0FBC3EF9BFFEE9AB3
:1045C500FEED99FDEC98FCE47BF47A01F9F8C31251
:1045D50009E750209003D0E0B40319126C1690033C
:1045E500D1120AE47BFF7A3179891268989003D059
:1045F500E004F022126C169003D1E0F8A3E0F9A3D1
:10460500E0FAA3E0FBC3EF9BFFEE9AFEED99FDEC0C
:1046150098FCE47BF47A01F9F8C31209E750249079
:1046250003D0E0B4041D126C169003D1120AE47B8A
:10463500FF7A3179A01268989003D0E004F0E490F5
:0346450003CFF0B0
:01464800224F
:04001E0075C7602220
:1066D00090048674FFF0A37431F0A374B5F0EF2436
:1066E000DCFFEE3405A3F0A3EFF0AE04C374DC9D31
:1066F00090048CF074059E90048BF07B017A0379F2
:0E670000381232B47B017A03793812682C22E9
:1047BA0090047DEEF0A3EFF0A3ECF0A3EDF0A3EAF2
:1047CA00F0A3EBF090047FE0FCA3E0FDEC1203BF42
:1047DA0090047DE0FAA3E0FB90000075F00E120B46
:1047EA0021EA75F00EA42583F583120AE490048168
:1047FA00E0FEA3E0FF90000C75F00EEB120B21EA2D
:10480A0075F00EA42583F583EEF0A3EFF090000C6B
:10481A0075F00EEB120B21EA75F00EA42583F583D1
:10482A00E0FCA3E0FDEC1203BFE4FBFA79A07841B7
:10483A0012029FC004C005C006C00790047DE0FEB6
:10484A00A3E0FF90000475F00E120B21EE75F00E36
:10485A00A42583F583E0F8A3E0F9A3E0FAA3E0FB3B
:10486A0090000075F00EEF120B21EE75F00EA425E4
:10487A0083F583E0FCA3E0FDA3E0FEA3E0FF1200C2
:10488A00A1D003D002D001D00012029F90047DE093
:10489A00FAA3E090000875F00E120B21EA75F00EEB
:1048AA00A42583F583120AE490048674FFF0A374A6
:1048BA0031F0A374D6F090047DE0FEA3E0FF9004EB
:1048CA0089EEF0A3EFF090047FE0FDA3E090048B63
:1048DA00CDF0A3EDF0900481E0FDA3E090048DCD2E
:1048EA00F0A3EDF0EF7802C333CE33CED8F9240E1D
:1048FA00F58274043EF583E0FCA3E0FDA3E0FEA389
:10490A00E0FF90048F120AE47B017A0379381232AD
:0A491A00B47B017A03793802674B81
:06419B00900467120AE423
:1041A100E4900479F0A3F0A3F0A3F0FFFEFDFC90EE
:1041B100046BE0F8A3E0F9A3E0FAA3E0FB12033CEF
:1041C1005003024339E490047BF0A3F0900475F0AE
:1041D100A3F090046BE0FCA3E0FDA3E0FEA3E0FFED
:1041E100900481120AE490046FE0FCA3E0FDA3E0D7
:1041F100FEA3E0FF900485120AE4900475E0FCA39D
:10420100E0FDEC1203BF900489120AE490048D745E
:1042110001F0A37403F0A374FEF0900467E0FCA323
:10422100E0FDA3E0FEA3E0FF1221B6EF4E702C905B
:104231000479E0FEA3E0FF900475E0FCA3E0FDC378
:104241009FEE6480F8EC6480985008900479ECF05B
:10425100A3EDF090047BE4F0A304F0900476E02455
:10426100FFF0900475E034FFF0C3A3E0947990046B
:1042710075E06480947F40030241D390047BE07039
:1042810002A3E0700302433990046BE0FCA3E0FD5C
:10429100A3E0FEA3E0FF900481120AE490046FE022
:1042A100FCA3E0FDA3E0FEA3E0FF900485120AE475
:1042B100900479E0FCA3E0FDEC1203BF90048912A5
:1042C1000AE490048D7401F0A37403F0A374FEF06A
:1042D100900467E0FCA3E0FDA3E0FEA3E0FF122150
:1042E100B6E4900477F0A3F0900477E0FEA3E0FF3A
:1042F100C00625E0FDEE33FC743E2DF58274043CCE
:10430100F583E0FCA3E0FD900473E0FAA3E0FBD0A9
:10431100061247BA900478E004F07006900477E042
:1043210004F0C3900478E09404900477E0648094EE
:0B4331008040B57E007F0122E4FEFF0B
:01433C00225E
:106B10007401A807088002C333D8FCF59DE4F5BDD5
:056B200075BC80FF229E
:10692400AE07126B10EE4488F5BC00000000E5BC15
:1069340030E4FB53BCEFAFBDEF75F004A4ADBE7CF7
:08694400002DFFEC35F0FE22EE
:0B6C4F00EF1FAC0670011E4C70F62217
:106B9E00EF1FAA0670011E4A60087D031DED60F00E
:026BAE0080FA6B
:016BB00022C2
:106A0500E4FDFCC3ED9FEC9E5015E4FBFA0BBB00C7
:0F6A1500010ABA03F8BBE8F50DBD00010C80E4DF
:016A2400224F
:1059DA0041039C0041039D0041039EFF41039F0137
:0559EA004203A00000D3
:10651B00E4FBEB75F00EA42400F582E43400F58364
:10652B00120AF044BB8000EB75F00EA42404F58234
:10653B00E43400F583120AF044BB8000EB75F00ED7
:10654B00A42408F582E43400F583120AF00000005D
:0F655B00000BEBB408BCE4900335F0A3F0A3F001
:01656A00220E
:0B53DD00900467EBF0A3EAF0A3E9F0F6
:1053E80090046DEBF0A3EAF0A3E9F090046AE0F909
:1053F800A3E0FAA3E0900470C9F0A3EAF0A3E9F0EF
:1054080090046DE0FBA3E0FAA3E0F912076EFF70C9
:10541800030254F2900470E0FBA3E0FAA3E0F9124F
:10542800076E6F60030254E5900470E0FBA3E0FA96
:10543800A3E0F912076E6078900470A3E475F00198
:10544800120846A9F0FA12076EFF90046DE0FBA35C
:10545800E475F001120846A9F0FA12076E6F60C8E9
:1054680090046AA3E0FAA3E0AE02FF900470A3E000
:10547800FAA3E0C39FFFEA9EFE90046DE0FBA3E061
:10548800FAA3E0C39FF9EA9EFAE92401F9E43AFA9B
:1054980090046DEBF0A3EAF0A3E9F090046AE0F958
:1054A800A3E0FAA3E0900470C9F0A3EAF0A3E9F03E
:1054B800900470E0FBA3E0FAA3E0F912076E600322
:1054C800025408900467A3E0FAA3E0AE02FF900438
:1054D8006DA3E0FAA3E0C39FFFEA9EFE2290046E4C
:0D54E800E475F001120830025408E4FEFFE4
:0154F5002294
:084924009004E3ECF0A3EDF0B8
:10492C00E4A3F0A3F09004E4E024FFFF9004E3E0A0
:10493C0034FFFEC39004E6E09FEE6480F89004E53B
:10494C00E06480984003024A62E0FEA3E0FF90041A
:10495C00E9EEF0A3EFF02401FFE43E9004E7F0A3AE
:10496C00EFF09004E3E0FEA3E0FF9004E7E0FCA38B
:10497C00E0FDC39FEE6480F8EC648098504DED250B
:10498C00E0FFEC338F82F583120887FDACF09004C6
:10499C00EAE025E0FF9004E9E0338F82F58312080A
:1049AC0087D39DEC6480F8E5F0648098400D90040A
:1049BC00E7E0FFA3E0A3CFF0A3EFF09004E8E0045E
:1049CC00F0709F9004E7E004F080979004E5E0FE1F
:1049DC00A3E0FF9004E9E0FCA3E0FD6F7002EC6E35
:1049EC006060ED25E0FFEC338F82F583120887FFC2
:1049FC009004EBE5F0F0A3EFF09004E6E025E0FF87
:104A0C009004E5E0338F82F583120887FD9004EA69
:104A1C00E025E0FF9004E9E0338F82F583E5F08D2B
:104A2C00F01208DE9004EBE0FCA3E0FD9004E6E05D
:104A3C0025E0FF9004E5E0338F82F583EC8DF012D6
:104A4C0008DE9004E6E004F060030249319004E5CE
:064A5C00E004F002493104
:014A62002231
:106B4E00D3EF9400EE64809480400122C3E49FFF53
:046B5E00E49EFE2291
:106A7F00E4F593F594F591F592F59575967FF5B14B
:0B6A8F00F5B2F5B3F5B4F5C9F5CA2265
:0D000E00C285C286C287C2B5C2B6C2B72283
:10678600EF14601614601914601C14601F14602244
:1067960024057023ED24FF928522ED24FF928622A4
:1067A600ED24FF928722ED24FF92B522ED24FF927D
:0867B600B622ED24FF92B72288
:0E63C100900467EEF0A3EFF0A3ECF0A3EDF074
:1063CF00E4A3F0A3F0900467E0FEA3E0FFC3900402
:1063DF006CE09FEE6480F890046BE0648098502A24
:1063EF00D2A6900469E0FEA3E0FF126A05C2A69050
:1063FF000469E0FEA3E0FF126A0590046CE004F06C
:0A640F0070C390046BE004F080BB42
:016419002260
:0B6C5A00EF1FAC0670011E4C70F6220C
:076C8B00D282D283D28122E4
:0964C600F9EF1207C612076EFF80
:1064CF00A907E4FDFB74017E00A803088005C33310
:1064DF00CE33CED8F9FFE9F582EF558224FF9283B0
:1064EF00D281C2817F0A7E00126C5AD28130840D14
:1064FF007401A803088002C333D8FC4DFD7F0A7EC8
:0B650F0000126C5A0BEBB408BCAF0587
:01651A00225E
:105A2100900453EBF0A3EAF0A3E9F0C2827F0112E4
:105A310064CF900453E0FBA3E0FAA3E0F9EF12076F
:105A4100B47F421264CF900453E0FBA3E0FAA3E0D9
:105A51009000011264C6900453E0FBA3E0FAA3E0B6
:105A61009000021264C6900453E0FBA3E0FAA3E0A5
:105A7100F99000031264C7900453E0FBA3E0FAA37A
:105A8100E0F99000041264C7900453E0FBA3E0FA2C
:105A9100A3E0F99000051264C7900453E0FBA3E072
:105AA100FAA3E0F99000061264C7900453E0FBA347
:105AB100E0FAA3E0F99000071264C7900453E0FBF9
:105AC100A3E0FAA3E0F9900008EF1207C6D2822200
:0F59EF004404FE000000004104FC004104FD00E0
:106AB300438E805389F0438901758AAA758CAAC2D3
:086AC3008DD28CD2A9D2AF22C2
:106B6200438E4053890FE4F58BF58DC28FD28ED2BE
:046B7200ABD2AF22D1
:106BB10043D10275D59A75D4A943D10843AF20D2E8
:026BC100AF2201
:1064700090039DE075F00EA42404F582E43400F549
:0F64800083E0FCA3E0FDA3E0FEA3E0FF1203F81E
:10648F0090044CEEF0A3EFF0FDAC06EC1203BF7BD3
:10649F009A7A9979A57841120196A804A905AA06B6
:1064AF00AB077F007EFF7D7F7C471200A11203F8B0
:0764BF008F8AEEFF8F8C2293
:0F6C16009004FEE0FCA3E0FDA3E0FEA3E0FF225C
:10668F0090044F120AE4E4FFFEFDFC90044FE0F883
:10669F00A3E0F9A3E0FAA3E0FB12033C6011400F63
:1066AF0090044FE0FCA3E0FDA3E0FEA3E0FF2290E7
:1066BF00044FE0FCA3E0FDA3E0FEA3E0FF1203A95B
:0166CF0022A8
:0546490090044CEFF0AD
:10464E0075F00EA42408F582E43400F583E0FCA393
:10465E00E0FDA3E0FEA3E0FFE4FBFAF9F812033C51
:10466E0070030247B990044CE075F00EA42400F5D7
:10467E0082E43400F583E0FCA3E0FDA3E0FEA3E0BA
:10468E00FF1203F890044DEEF0A3EFF0D394BAEEC0
:10469E0064809489400C90044D7409F0A374BAF0B0
:1046AE008018C390044EE094F490044DE06480941E
:1046BE008150077401F0A374F4F090044DE0FCA354
:1046CE00E0FDEC1203BF90044CE075F00EA4240440
:1046DE00F582E43400F583E0F8A3E0F9A3E0FAA351
:1046EE00E0FB1200A112668FC004C005C006C00711
:1046FE0090044CE075F00EA42408F582E43400F525
:10470E0083E0FCA3E0FDA3E0FEA3E0FFA804A9055F
:10471E00AA06FB1200A512668FA804A905AA06AB6D
:10472E0007D007D006D005D00412033C40379004C2
:10473E004DE0FCA3E0FDEC1203BF90044CE0FB75D2
:10474E00F00EA42404F582E43400F583120AE4EB9F
:10475E0075F00EA42408F582E43400F583120AF0F5
:10476E00000000002290044CE075F00EA42404F525
:10477E0082E43400F583C083C082E0FCA3E0FDA395
:10478E00E0FEA3E0FF90044CE075F00EA42408F5C3
:10479E0082E43400F583E0F8A3E0F9A3E0FAA3E0A5
:0B47AE00FB1200A5D082D083120AE4A9
:0147B90022DD
:03000B000251A2FD
:1051A200C0E0C0F0C083C082C0D075D000C000C0D3
:0D51B20001C002C003C004C005C006C00754
:1051BF0090039DE0C394084002E4F09004FCE0707B
:1051CF007A90039DE075F00EA42408F582E4340074
:1051DF00F583E0FCA3E0FDA3E0FEA3E0FFEC4D4E62
:1051EF004F7010126C16E47BB87A0BF9F8D31209D2
:1051FF00E7401D12647090039DE0FF7D01126786EA
:10520F0090039DE0FF1246499004FDE4F002529492
:10521F009004FDE004F0E0C3940350171264709003
:10522F00039DE0FF7D0112678690039DE0FF12460C
:10523F004980529004FD7403F0804A90039DE075FD
:10524F00F00EA42404F582E43400F583E0FCA3E01F
:10525F00FDA3E0FEA3E0FF1203F8C374C49FFF7425
:10526F00099EFEC3EF9414EE6480948050047E0078
:10527F007F1412648F90039DE0FFE4FD1267869008
:10528F00039DE004F09004FCE070047F0180027F36
:06529F00009004FCEFF09A
:1052A500D007D006D005D004D003D002D001D0005D
:0B52B500D0D0D082D083D0F0D0E03207
:03001B000269E493
:1069E400C0E0C083C082758B00758D009003A1E068
:1069F40004F070069003A0E004F0D082D083D0E0CD
:016A0400325F
:03009B000265B744
:1065B700C0E0C0F0C083C082C0D075D000C000C0AA
:1065C70004C005C006C0079004FEE0FCA3E0FDA3DD
:1065D700E0FEA3E02401FFE43EFEE43DFDE43CFCD5
:1065E7009004FE120AE4D007D006D005D004D000EC
:0B65F700D0D0D082D083D0F0D0E032B2
:1059FE004104CE004104CF004404D0000000004218
:105A0E0004C400004104C7004204C800004204CB95
:025A1E00000086
:0F6C25009004D0E0FCA3E0FDA3E0FEA3E0FF227B
:1062A300900453120AE4439850900453E0F8A3E097
:1062B300F9A3E0FAA3E0FB7F007E607D547C00122B
:1062C3000947EFF404F5D7900453E0F8A3E0F9A3EA
:1062D300E0FAA3E0FB7F007E607D547C0012094757
:1062E300C3E49FFFE49EFE74019DFDE49CFC7808DB
:1062F3001209F88FD6438E15E4F587D2AFD2AC22BC
:10636300900453120AE4759A50900453E0F8A3E0A2
:10637300F9A3E0FAA3E0FB7F007E607D547C00126A
:106383000947EFF404F5D7900453E0F8A3E0F9A329
:10639300E0FAA3E0FB7F007E607D547C0012094796
:1063A300C3E49FFFE49EFE74019DFDE49CFC78081A
:0E63B3001209F88FD675AF0143BA01D2AF229E
:10624200900453120AE453BAFB758410900453E08D
:10625200F8A3E0F9A3E0FAA3E0FB7F007E607D549F
:106262007C00120947EFF404F5D7900453E0F8A339
:10627200E0F9A3E0FAA3E0FB7F007E607D547C009E
:10628200120947C3E49FFFE49EFE74019DFDE49C56
:10629200FC78081209F88FD6438E1443AF10D2AFA0
:0162A20022D9
:036CC700D2AC222A
:036CCA00C2AC2237
:0400960043AF012251
:046C9F0053AFFE22CF
:046CA30043AF1022C9
:046CA70053AFEF22D6
:10002600E4FDFC8F992099120DEDAE0470010C14BD
:0C003600C394E8EE6480948340EBC29910
:01004200229B
:0F68CB00A3E475F001120846A9F0FA12076EFF58
:1068DA00E4FDFC8F9BE59A20E1120DEDAE047001F8
:0F68EA000C14C394E8EE6480948340E9539AFD44
:0168F900227C
:106A2500E4FDFC8F85E58420E1120DEDAE047001D7
:0F6A35000C14C394E8EE6480948340E95384FD0D
:016A4400222F
:10674B00900483EBF0A3EAF0A3E9F0C28CC2A9900A
:10675B000483E0FBA3E0FAA3E0F912076E60179045
:10676B000483A3E475F001120846A9F0FA12076E30
:0B677B00FF12002680D9D28CD2A92288
:1069C000900453EBF0A3EAF0A3E9F0900453E0FB4A
:1069D000A3E0FAA3E0F912076E600890045312686E
:0469E000CB80E8225E
:10689800900453EBF0A3EAF0A3E9F0900453E0FB73
:1068A800A3E0FAA3E0F912076E6017900453A3E47B
:1068B80075F001120846A9F0FA12076EFF126A2550
:0368C80080D92252
:10682C00900467EBF0A3EAF0A3E9F0C28CC2A99044
:10683C0003357401F0900467E0FBA3E0FAA3E0F9E0
:10684C0012076E60089004671268CB80E8E490032E
:07685C0035F0D28CD2A92215
:03002300024BA1EC
:0D4BA100C0E0C0F0C083C082C0D075D0104D
:104BAE00209803024CD4C2989004C6E599F0E0FF19
:104BBE00700FA3E004F0E0C3940F400A75C7608045
:104BCE00059004C7E4F0900335E06003024CD4EF87
:104BDE00B43C089003367404F08038900336E070CD
:104BEE00399004C6E0FFB424089003367401F080B7
:104BFE0022EFB423089003367402F08016EFB47BD4
:104C0E00089003367403F0800AEFB43C0690033626
:104C1E007404F09004C4E4F0A3F09004C6E0FF9096
:104C2E0004C4E475F001120846FC743125F0F582D7
:104C3E0074013CF583EFF0900336E0FEB40415EFFB
:104C4E00643E70759004C4E0FCA3E02431F58274D8
:104C5E00013C8055EEB401179004C6E0B4211090CB
:104C6E0004C4E0FEA3E02431F58274013E803A9044
:104C7E000336E0B402179004C6E0B421109004C4C9
:104C8E00E0FEA3E02431F58274013E801C900336D1
:104C9E00E0B403259004C6E0B47D1E9004C4E0FE8B
:104CAE00A3E02431F58274013EF583E4F0900335E0
:104CBE0004F09004C4E4F0A3F0C39004C4E09402A2
:064CCE004004E4F0A3F035
:0B4CD400D0D0D082D083D0F0D0E032EE
:03004300024CDF8D
:0D4CDF00C0E0C0F0C083C082C0D075D0100E
:104CEC00E59A20E003024E109004CAE59BF0539A1B
:104CFC00FE900335E06003024E109004CAE0B43C11
:104D0C00189003367404F09004C8E4F0A3F0126C0D
:104D1C00169004D0120AE4803F900336E07039906C
:104D2C0004CAE0FFB424089003367401F08022EF2B
:104D3C00B423089003367402F08016EFB47B08900D
:104D4C0003367403F0800AEFB43C06900336740407
:104D5C00F09004C8E4F0A3F09004CAE0FF9004C8FB
:104D6C00E475F001120846FC743125F0F5827401EB
:104D7C003CF583EFF0900336E0FEB40415EF643E8F
:104D8C0070759004C8E0FCA3E02431F58274013CFA
:104D9C008055EEB401179004CAE0B421109004C8F9
:104DAC00E0FEA3E02431F58274013E803A90033694
:104DBC00E0B402179004CAE0B421109004C8E0FEDD
:104DCC00A3E02431F58274013E801C900336E0B4DC
:104DDC0003259004CAE0B47D1E9004C8E0FEA3E055
:104DEC002431F58274013EF583E4F090033504F030
:104DFC009004C8E4F0A3F0C39004C8E0940240040B
:044E0C00E4F0A3F03B
:0B4E1000D0D0D082D083D0F0D0E032B0
:03009300024E1BFF
:0D4E1B00C0E0C0F0C083C082C0D075D010D0
:104E2800E58420E003024F4C5384FE9004CDE585D1
:104E3800F0900335E06003024F4C9004CDE0B43CA1
:104E4800189003367404F09004CBE4F0A3F0126CCD
:104E5800169004D0120AE4803F900336E07039902F
:104E680004CDE0FFB424089003367401F08022EFEB
:104E7800B423089003367402F08016EFB47B0890D0
:104E880003367403F0800AEFB43C069003367404CA
:104E9800F09004CBE4F0A3F09004CDE0FF9004CBB5
:104EA800E475F001120846FC743125F0F5827401AE
:104EB8003CF583EFF0900336E0FEB40415EF643E52
:104EC80070759004CBE0FCA3E02431F58274013CBA
:104ED8008055EEB401179004CDE0B421109004CBB6
:104EE800E0FEA3E02431F58274013E803A90033657
:104EF800E0B402179004CDE0B421109004CBE0FE9A
:104F0800A3E02431F58274013E801C900336E0B49E
:104F180003259004CDE0B47D1E9004CBE0FEA3E011
:104F28002431F58274013EF583E4F090033504F0F2
:104F38009004CBE4F0A3F0C39004CBE094024004C7
:044F4800E4F0A3F0FE
:0B4F4C00D0D0D082D083D0F0D0E03273
:106BE600EF1FAC0670011E4C600500000080F1220C
:106A63004395045396FB5395E543961A53A2F74374
:0C6A7300A204E4F5CF75CDC075CED02292
:076C920053CEFC43CE0322A8
:046CAB0053CEFC22A6
:106A4500900507E0FCA3E0FDA3E0FEA3E0FF12092B
:016A5500F848
:0D6A56008FCFE5CD30E7FB75CDC0AFCF226F
:1068FA00E4FDFCC2A47F90126A56E4FF126A56E4D1
:10690A00FF126A56E4FF126A567FFF126A56EFFCBC
:09691A007FFF126A56D2A4AE04FC
:016923002251
:0E6C3400C2A47F05126A567FFF126A56D2A4D0
:016C4200222F
:106BD500AE07C2A47F01126A56AF06126A56D2A446
:016BE500228D
:0A6C6500C2A47F06126A56D2A422D0
:0A6C6F00C2A47F04126A56D2A422C8
:06686300900507120AE493
:10686900C2A47F03126A567810126A457808126A20
:1068790045900507E0FCA3E0FDA3E0FEA3E0FF12BD
:0E6889006A567FFF126A5690050BEFF0D2A4FC
:0168970022DE
:0F60620090046BEBF0A3EAF0A3E9F0A3120AE4B9
:10607100C2A47F03126A5690046EE0FCA3E0FDA364
:10608100E0FEA3E0FF78101209F8126A5690046E40
:10609100E0FCA3E0FDA3E0FEA3E0FF78081209F80D
:1060A100126A5690046EE0FCA3E0FDA3E0FEA3E0BB
:1060B100FF126A56E4FDFCD3900473E09D900472D4
:1060C100E09C401F7FFF126A5690046BE0FBA3E047
:1060D100FAA3E0F98D828C83EF1207C60DBD000192
:0560E1000C80D4D2A4E4
:0160E6002297
:0F4F57009004D4EBF0A3EAF0A3E9F0A3120AE46C
:104F66009004DD120AF0000000009004D7A3A3E02D
:104F7600FEA3E0FFEE540FFEE4C39FFF74109EFEF7
:104F86009004E1F0A3EFF09004DBE0FCA3E0FDD396
:104F96009FEC9E50089004E1ECF0A3EDF09004D74E
:104FA600E0FCA3E0FDA3E0FEA3E0FF780C1209F805
:104FB6009004DD120AE49004DDE0FCA3E0FDA3E02A
:104FC600FEA3E0FF1261DA9004D7E0FCA3E0FDA3A4
:104FD600E0FEA3E0FF9004E1E0FBA3E09004F4CB45
:104FE600F0A3EBF09004D4E0FBA3E0FAA3E0F912FF
:104FF60063039004E1E0FEA3E0FF9004DBE0B50666
:1050060006A3E0B50701229004E1E0FEA3E0FF90CD
:1050160004D5EE8FF01208309004D7E0F8A3E0F93B
:10502600A3E0FAA3E0FBE4FCFDEB2FFFEA3EFEED76
:1050360039FDEC38FC9004D7120AE49004E1E0FE56
:10504600A3E0FFC39004DCE09FFF9004DBE09EFE3C
:10505600F0A3EFF0D39400EE9410400C9004E174AA
:1050660010F0A3E4F0024FA39004DBE0FFA3E0906E
:0A50760004E1CFF0A3EFF0024FA316
:10004600AB07126C65C2A47F02126A56900503E0E4
:10005600FCA3E0FDA3E0FEA3E0FF78101209F8126E
:100066006A56900503E0FCA3E0FDA3E0FEA3E0FFD3
:1000760078081209F8126A56900503A3A3A3E0FFB5
:0D008600126A56AF03126A56D2A40200039C
:0F5C2800900463EBF0A3EAF0A3E9F0A3120AE4FF
:105C3700900466E0FCA3E0FDA3A3E0FFE4C39FFF9D
:105C470074019400FED390046BE09F90046AE09E79
:105C57004005EEF0A3EFF0126C65C2A47F02126A52
:105C670056900466E0FCA3E0FDA3E0FEA3E0FF7806
:105C7700101209F8126A56900466E0FCA3E0FDA32F
:105C8700E0FEA3E0FF78081209F8126A569004664E
:105C9700A3A3A3E0FF126A56E4FDFCD390046BE0D4
:105CA7009D90046AE09C401D900463E0FBA3E0FA2A
:105CB700A3E0F98D828C83120787FF126A560DBD08
:0A5CC70000010C80D6D2A4020003F5
:0F6303009004EDEBF0A3EAF0A3E9F0A3120AE493
:106312009004F0A3A3E0FEA3E0FFEE540FFEE4C35B
:106322009FFF74109EFED39004F5E09F9004F4E06A
:106332009E4005EEF0A3EFF09004F0E0FCA3E0FD38
:10634200A3E0FEA3E0FFA3E0FBA3E090045FCBF099
:10635200A3EBF09004EDE0FBA3E0FAA3E0F9025610
:016362000238
:0F560200900458EBF0A3EAF0A3E9F0A3120AE436
:1056110090045BA3A3A3E0FFE4C39FFF7401940084
:10562100FE900461F0A3EFF090045FE0FCA3E0FDC5
:10563100D39FEC9E5006A3ECF0A3EDF090045BE049
:10564100FCA3E0FDA3E0FEA3E0FF900461E0FBA367
:10565100E090046ACBF0A3EBF0900458E0FBA3E0E8
:10566100FAA3E0F9125C28900461E0FEA3E0FF9048
:10567100045FE0B50606A3E0B5070122900461E0EE
:10568100FEA3E0FF900459EE8FF012083090045B06
:10569100E0F8A3E0F9A3E0FAA3E0FBE4FCFDEB2FC3
:1056A100FFEA3EFEED39FDEC38FC90045B120AE4A2
:1056B100900461E0FEA3E0FFC3900460E09FFF90CF
:1056C100045FE09EFEF0A3EFF0D39400EE9401405E
:1056D1000AA37401F0A3E4F002563D90045FE0FFD9
:0B56E100A3E0A3CFF0A3EFF002563DC2
:1061DA0090046B120AE490046BE0FCA3E0FDA3E0D8
:1061EA00FEA3E0FF780C120A0B90046B120AE41269
:1061FA006C65120003C2A47F20126A5690046BE0F9
:10620A00FCA3E0FDA3E0FEA3E0FF78101209F81258
:10621A006A5690046BE0FCA3E0FDA3E0FEA3E0FF56
:10622A0078081209F8126A5690046BA3A3A3E0FF38
:08623A00126A56D2A40200030F
:106BC300126C65120003C2A47FC7126A56D2A402D4
:026BD3000003BD
:08000300126C34EF20E0F92239
:106BF600C2A47FB9126A56D2A47F037E00026BE656
:106C0600C2A47FAB126A56D2A47F037E00026BE653
:0C6C4300244447543A312D392C312100F3
:01009A002243
:10694C0090039FE0602120C41E7F147E00126A0514
:10695C0020C4147BFF7A6C79431217AC7D647C00E5
:08696C007F017E001263C122CD
:105CD100900453120AE4E4FFFE7D207C41900453BA
:105CE100E0F8A3E0F9A3E0FAA3E0FB120196900427
:105CF10063E0FBA3E0FAA3E0F9120A6EE4FFFE7D84
:105D0100207C41900457E0F8A3E0F9A3E0FAA3E076
:105D1100FB120196900463E0FBA3E0FAA3E0F99083
:105D21000004120A88E4FFFE7D207C4190045BE0C0
:105D3100F8A3E0F9A3E0FAA3E0FB12019690046353
:105D4100E0FBA3E0FAA3E0F9900008120A88E4FF5F
:105D5100FE7D207C4190045FE0F8A3E0F9A3E0FA26
:105D6100A3E0FB120196900463E0FBA3E0FAA3E039
:075D7100F990000C020A8802
:0621B60090047D120AE412
:1021BC0090047DE0FCA3E0FDA3E0FEA3E0FFE4FBC4
:1021CC00FA7920784112019690047D120AE4900469
:1021DC0081E0FCA3E0FDA3E0FEA3E0FFE4FBFA79C1
:1021EC00207841120196900481120AE4900485E053
:1021FC00FCA3E0FDA3E0FEA3E0FFE4FBFA7920786A
:10220C0041120196900485120AE490048DE0FBA320
:10221C00E0FAA3E0F9120A1E9004A0120AE490005E
:10222C0004120A3E9004A4120AE4900008120A3E1A
:10223C009004A8120AE490000C120A3E9004AC120E
:10224C000AE4E4FFFEFDFC90047DE0F8A3E0F9A3B2
:10225C00E0FAA3E0FB12033C700C90049C120AF011
:10226C0000000000803D900481E0F8A3E0F9A3E0B9
:10227C00FAA3E0FB90047DE0FCA3E0FDA3E0FEA349
:10228C00E0FF12029F1250A0E4FBFA79347843125B
:10229C0001967BDA7A0F7949784012029F90049C60
:1022AC00120AE4900481E0FCA3E0FDA3E0FEA3E0AD
:1022BC00FFA804A905AA06FB120196C004C005C01C
:1022CC0006C00790047DE0FCA3E0FDA3E0FEA3E0C4
:1022DC00FFA804A905AA06FB120196D003D002D0D0
:1022EC0001D0001200A5125AD5900481120AE49074
:1022FC000481E0FCA3E0FDA3E0FEA3E0FFC004C06A
:10230C0005C006C0077FDA7E0F7D497C40900489AA
:10231C00E0F8A3E0F9A3E0FAA3E0FB120196E4FBDA
:10232C00FA7934784312029F1243859004ACE0F89A
:10233C00A3E0F9A3E0FAA3E0FB120196A804A90517
:10234C00AA06AB07D007D006D005D0041200A19086
:10235C000481120AE47FDA7E0F7D497C4090048967
:10236C00E0F8A3E0F9A3E0FAA3E0FB120196E4FB8A
:10237C00FA7934784312029F12439B9004ACE0F834
:10238C00A3E0F9A3E0FAA3E0FB120196C004C00598
:10239C00C006C0079004A0E0F8A3E0F9A3E0FAA3FC
:1023AC00E0FB900485E0FCA3E0FDA3E0FEA3E0FFCE
:1023BC001200A1D003D002D001D0001200A19004D1
:1023CC0085120AE49004A0E0FCA3E0FDA3E0FEA3C8
:1023DC00E0FF1203A9900485E0F8A3E0F9A3E0FA6A
:1023EC00A3E0FB12033C50057E007F012290048584
:1023FC00E0FCA3E0FDA3E0FEA3E0FFA804A905AA6E
:10240C0006FB120196C004C005C006C007900481EB
:10241C00E0FCA3E0FDA3E0FEA3E0FFA804A905AA4D
:10242C0006FB120196D003D002D001D0001200A5F9
:10243C00125AD5C004C005C006C0079004A8E0FC21
:10244C00A3E0FDA3E0FEA3E0FF9004A4E0F8A3E06A
:10245C00F9A3E0FAA3E0FB1200A5A804A905AA06BB
:10246C00AB07D007D006D005D00412033C50057E34
:10247C00007F0222900485E0FCA3E0FDA3E0FEA314
:10248C00E0FFA804A905AA06FB120196C004C0052A
:10249C00C006C007900481E0FCA3E0FDA3E0FEA30E
:1024AC00E0FFA804A905AA06FB120196D003D002EE
:1024BC00D001D0001200A5125AD5A804A905AA066D
:1024CC00AB07900481E0FCA3E0FDA3E0FEA3E0FFDA
:1024DC0012029F1266029004B8120AE4900485E07E
:1024EC00FCA3E0FDA3E0FEA3E0FFA804A905AA0657
:1024FC00FB120196C004C005C006C007900481E021
:10250C00FCA3E0FDA3E0FEA3E0FFA804A905AA0636
:10251C00FB120196D003D002D001D0001200A512FC
:10252C005AD5C004C005C006C007E4FFFEFD7C40C0
:10253C009004A4E0F8A3E0F9A3E0FAA3E0FB1201F5
:10254C0096D003D002D001D000120196C004C00571
:10255C00C006C007900485E0FCA3E0FDA3E0FEA349
:10256C00E0FFA804A905AA06FB120196C004C00549
:10257C00C006C007900481E0FCA3E0FDA3E0FEA32D
:10258C00E0FFA804A905AA06FB120196A804A90558
:10259C00AA06AB07D007D006D005D0041200A5C000
:1025AC0004C005C006C0079004A4E0FCA3E0FDA392
:1025BC00E0FEA3E0FF9004A4E0F8A3E0F9A3E0FAA6
:1025CC00A3E0FB120196A804A905AA06AB07D00745
:1025DC00D006D005D0041200A5C004C005C006C0AA
:1025EC00079004A8E0FCA3E0FDA3E0FEA3E0FFA895
:1025FC0004A905AA06FB120196A804A905AA06AB14
:10260C0007D007D006D005D0041200A1D003D00209
:10261C00D001D00012029F9004B4120AE4E4FFFE31
:10262C007D807C3F9004B4E0F8A3E0F9A3E0FAA32A
:10263C00E0FB12033C6002501AE4FFFE7D807CBF7D
:10264C009004B4E0F8A3E0F9A3E0FAA3E0FB1203D2
:10265C003C50057E007F0322E4FFFEFDFC900485C8
:10266C00E0F8A3E0F9A3E0FAA3E0FB12033C90042A
:10267C00BC5009120AF0BF8000008007120AF03F1C
:10268C008000009004B4E0FCA3E0FDA3E0FEA3E016
:10269C00FF126602C004C005C006C0079004BCE06F
:1026AC00FCA3E0FDA3E0FEA3E0FF9004B8E0F8A3D8
:1026BC00E0F9A3E0FAA3E0FB120196D003D002D01C
:1026CC0001D0001200A5900498120AE4E4FFFE7DEC
:1026DC00347C43900498E0F8A3E0F9A3E0FAA3E07B
:1026EC00FB1201967BDA7A0F7949784012029F909F
:1026FC000498120AE4E4FFFE7D347C43900498E0D5
:10270C00F8A3E0F9A3E0FAA3E0FB12033C6002504B
:10271C0018E4FFFEFDFC900498E0F8A3E0F9A3E0B8
:10272C00FAA3E0FB12033C50057E007F04229004C8
:10273C0085E0FCA3E0FDA3E0FEA3E0FFA804A9054F
:10274C00AA06FB120196C004C005C006C00790047F
:10275C0081E0FCA3E0FDA3E0FEA3E0FFA804A90533
:10276C00AA06FB120196D003D002D001D0001200B1
:10277C00A5C004C005C006C0079004A4E0FCA3E0FB
:10278C00FDA3E0FEA3E0FFA804A905AA06FB120125
:10279C0096A804A905AA06AB07D007D006D005D089
:1027AC00041200A1C004C005C006C0079004A8E034
:1027BC00FCA3E0FDA3E0FEA3E0FFA804A905AA0684
:1027CC00FB120196A804A905AA06AB07D007D006F0
:1027DC00D005D0041200A11203A9C004C005C00684
:1027EC00C007E4FFFEFD7C409004A4E0F8A3E0F9F0
:1027FC00A3E0FAA3E0FB1201969004A8E0F8A3E092
:10280C00F9A3E0FAA3E0FB120196A804A905AA0615
:10281C00AB07D007D006D005D00412029F9004B0AD
:10282C00120AE4E4FFFE7D807C3F9004B0E0F8A344
:10283C00E0F9A3E0FAA3E0FB12033C6002501AE4B7
:10284C00FFFE7D807CBF9004B0E0F8A3E0F9A3E02C
:10285C00FAA3E0FB12033C50057E007F0522900496
:10286C00B0E0FCA3E0FDA3E0FEA3E0FF1266029043
:10287C000494120AE4E4FFFE7D347C43900494E05B
:10288C00F8A3E0F9A3E0FAA3E0FB1201967BDA7A55
:10289C000F7949784012029FA804A905AA06AB0734
:1028AC00E4FFFE7D347C431200A1900494120AE4F0
:1028BC00E4FFFE7D077C43900494E0F8A3E0F9A3C9
:1028CC00E0FAA3E0FB12033C6002501AE4FFFE7D29
:1028DC00077CC3900494E0F8A3E0F9A3E0FAA3E02A
:1028EC00FB12033C50057E007F0622900498E0F812
:1028FC00A3E0F9A3E0FAA3E0FB900489E0FCA3E0D9
:10290C00FDA3E0FEA3E0FF1200A1900494E0F8A365
:10291C00E0F9A3E0FAA3E0FB1200A5900490120AE0
:10292C00E4E4FFFE7DB47C42900490E0F8A3E0F96F
:10293C00A3E0FAA3E0FB12033C6002501AE4FFFE92
:10294C007DB47CC2900490E0F8A3E0F9A3E0FAA374
:10295C00E0FB12033C50057E007F072290049CE0B4
:10296C00FCA3E0FDA3E0FEA3E0FF90048DE0FBA33D
:10297C00E0FAA3E0F9900010120A88E4FFFE7DB49F
:10298C007CC2900498E0F8A3E0F9A3E0FAA3E0FB82
:10299C001200A590048DE0FBA3E0FAA3E0F99000EF
:1029AC0014120A88900494E0FCA3E0FDA3E0FEA3BB
:1029BC00E0FF900018120A88900490E0FCA3E0FD60
:1029CC00A3E0FEA3E0FF90001C120A8890001012F6
:1029DC000A3EE4FBFA79FA7844120196E4FBFA79A0
:1029EC0087784312029FA804A905AA06AB077F00AB
:1029FC007E807DBB7C441200A11203F890048DE014
:102A0C00FBA3E0FAA3E0F9900040EE8FF01208DE91
:102A1C00900014120A3EE4FBFA79FA7844120196FB
:102A2C00E4FBFA7987784312029F7B007A8079BBAA
:102A3C0078441200A51203F890048DE0FBA3E0FA91
:102A4C00A3E0F9900042EE8FF01208DE900018120D
:102A5C000A3EE4FBFA79FA7844120196E4FBFA791F
:102A6C0087784312029F7B007A8079BB78441200EE
:102A7C00A51203F890048DE0FBA3E0FAA3E0F99013
:102A8C000044EE8FF01208DE90001C120A3EE4FBAC
:102A9C00FA79FA7844120196E4FBFA7987784312B2
:102AAC00029FA804A905AA06AB077F007E807DBB08
:102ABC007C441200A11203F890048DE0FBA3E0FA11
:0F2ACC00A3E0F9900046EE8FF01208DEE4FEFF63
:012ADB0022D8
:10009E00020464E86480F8E933E83360110460F028
:1000AE00ED33EC337009E8FCE9FDEAFEEBFF2204C8
:1000BE0060DED3EB9FEA9EE99DE8C2E78CF0C2F7C3
:1000CE0095F0400CE8CCF8E9CDF9EACEFAEBCFFB8F
:1000DE0012042F85D0F05804700320D5B3E80470B5
:1000EE00075002B2D502046E92D5EC0460F7E4CC50
:1000FE00C0E0C398F8603B94186008400DD0E0FB58
:10010E00020446E4FBFAC9FC8028E830E406E4C9A0
:10011E00FBE4CAFCE830E305E4C9CACBFCE85407AB
:10012E006010F8C3E913F9EA13FAEB13FBEC13FCB6
:10013E00D8F130F52FC3E49CFCEF9BFFEE9AFEED59
:10014E0099FDD0E0FBEF4E4D4C701222DB03020402
:10015E006BEC2CFCEF33FFEE33FEED33FDED30E7B1
:10016E00EB020446EF2BFFEE3AFEED39FDD0E0FB3D
:10017E0050130BBB000302046EED13FDEE13FEEFE6
:08018E0013FFEC13FC02044610
:10019600EC4D6011E8497017ED33EC3304600DE463
:1001A600FCFFFEFD22E933E8330470F80204641212
:1001B600042F58046009E4CC248150062850090213
:1001C600046E28400302046BC0E0EB4A7044B98019
:1001D60006D0E0FB02045AEF4E701CBD8008EBFF10
:1001E600EAFEE9FD80EBE98DF0A4FEE5F002027F70
:1001F600E9CDF9EAFEEBFFEF89F0A4FCE5F0CE8944
:10020600F0A42EFFE435F0CD89F0A42DFEE435F000
:100216008067EF4E7005BD80D780C3EF8BF0A4AC2E
:10022600F0EE8BF0A42CFCE435F0F8EF8AF0A42C69
:10023600E5F038FCE433CB8DF0A42CFCE5F03BF87C
:10024600EE8AF0A42CFCE5F038F8E433CF89F0A46C
:100256002CFCE5F038CF3400CE89F0A42FFFE5F072
:100266003EFEE433C98DF0A42EFEE5F039CD8AF0CA
:10027600A42FFFE5F03EFEE43DFD33D0E0FB500742
:100286000BBB000F02046EEC2CFCEF33FFEE33FECB
:06029600ED33FD020446F9
:10029C0002046EEC5D046005E8590470030204640A
:1002AC0012042F580460F6EC4860F2EC7004FDFE6A
:1002BC00FF22C860DB2481C85009C3986002500635
:1002CC0002046B9850CAF582E9294B4A7005AB823F
:1002DC0002045A75F0007C1A7880C3EF9BEE9AEDFD
:1002EC0099400DC3EF9BFFEE9AFEED99FDE842F0AD
:1002FC00DC23ACF0D0E0FFD0E0FED0E0FDAB822000
:10030C00E7101BEB60BAEC2CFCEF33FFEE33FEED89
:10031C0033FD020446E803F830E705C0F075F00041
:10032C00EF2FFFEE33FEED33FD40B830E7C280AA6D
:10033C0074F8CC6480CCC86480C8F582046043C374
:10034C00EB9FF5F0EA9E42F0E99D42F0E89C45F007
:10035C0060305018E5825FFFE582F42B5582FB502C
:10036C00210ABA001D09B90019088016E5825BFB49
:10037C00E582F42F5582FF50090EBE00050DBD001D
:10038C00010CC3EB9FF5F0EA9E42F0E99D42F0E8C8
:0D039C009C45F06007CC4820E701B3EC223F
:1003A900ED33EC33600A047003BD8004ECB2E7FC62
:0103B9002221
:1003BA0075F020800E75F010800575F0087D007EBE
:1003CA00007F003392D530D5031209D9EC3340109F
:1003DA00EF33FFEE33FEED33FDEC33FCD5F0ED22C7
:0E03EA00E5F0247EA2D513CC92E7CDCEFF2203
:1003F800EDD2E7CD33EC3392D524814006E4FFFEFD
:10040800FDFC22FCE4CFCECDCC24E0501174FF805B
:10041800EDC3CC13CCCD13CDCE13CECF13CF0470F8
:07042800F030D5DE0209D916
:10324F00E5222486F582E43404F583E005222290FA
:10325F000483300703900486E475F001120B3602E5
:10326F00076E2000E97F2ED2008018EF540F2490B4
:10327F00D43440D4FF30040BEF24BFB41A005003F2
:10328F002461FFE523600215230526E5267002055C
:10329F002530070E900483E475F001120B36EF0210
:1032AF0007B40269747403D2078003E4C207F522DE
:1032BF00900483120B64E4F523F525F526E52360CE
:1032CF00077F2012329280F57524FFC201C200C21F
:1032DF0002C203C205C206C20812325EFF700D3071
:1032EF0007057F001232A3AF26AE2522B4255FC299
:1032FF00D5C20412325EFF24D0B40A00501A75F002
:10330F000A782330D50508B6FF0106C6A426F62095
:10331F00D5047002D20380D924CFB41A00EF500421
:10332F00C2E5D204023595D20180C6D20080C0D248
:10333F000280BCD2D580BAD20580B47F20123292DF
:10334F002002077401B5230040F112324FFF1232F1
:10335F00920232CCD208D206809512324FFB123233
:10336F004FFA12324FF94A4B700679937A367BFF38
:10337F0020022EE523602A7E008E827583001207BD
:10338F008760060EEE652470F0C2D5EBC0E0EAC090
:10339F00E0E9C0E0EE1235F6D0E0F9D0E0FAD0E087
:1033AF00FB12076EFF60AAEBC0E0EAC0E0E9C0E0E5
:1033BF00123292D0E02401F9D0E03400FAD0E0FBD1
:1033CF00E5240460DCD524D98087D20280A212358F
:1033DF00D860F7E524700104120479A924600DE583
:1033EF0024600914F524123680EF60F3EA30E70207
:1033FF00F404C3995079EAF425240430E701E40476
:10340F00F524800D1235D860C1EA05242524120455
:10341F0079EA9004B2F030E701E4252404D52404BE
:10342F00200501141235F6E4C0E01236809004B284
:10343F00E0601320E70714F012327A802204F0D0F4
:10344F00E014C0E07F0012327AE524600712327177
:10345F001524800B300503123271D0E00232CCD02C
:10346F00E00480C41235D8609EE5240412047990DC
:10347F0004B2EAF0E52420050260010424041235A9
:01348F00F646
:1034900074FF04C0E012368012327AE5242005025F
:1034A0006003123271D0E0B524E87F451232849077
:1034B00004B2E07F2B30E7047F2DF404C0E0123229
:1034C00092D0E075F00A84C0F012327BD0E0123264
:1034D0007B0232CC791080027908C206C2088008CB
